{"abi":[{"type":"function","name":"hash","inputs":[{"name":"input","type":"uint256[]","internalType":"Field.Type[]"}],"outputs":[{"name":"","type":"uint256","internalType":"Field.Type"}],"stateMutability":"pure"},{"type":"function","name":"hash","inputs":[{"name":"input","type":"uint256[]","internalType":"Field.Type[]"},{"name":"std_input_length","type":"uint256","internalType":"uint256"},{"name":"is_variable_length","type":"bool","internalType":"bool"}],"outputs":[{"name":"","type":"uint256","internalType":"Field.Type"}],"stateMutability":"pure"},{"type":"function","name":"hash_1","inputs":[{"name":"x","type":"uint256","internalType":"Field.Type"}],"outputs":[{"name":"","type":"uint256","internalType":"Field.Type"}],"stateMutability":"pure"},{"type":"function","name":"hash_2","inputs":[{"name":"x","type":"uint256","internalType":"Field.Type"},{"name":"y","type":"uint256","internalType":"Field.Type"}],"outputs":[{"name":"","type":"uint256","internalType":"Field.Type"}],"stateMutability":"pure"},{"type":"function","name":"hash_3","inputs":[{"name":"x","type":"uint256","internalType":"Field.Type"},{"name":"y","type":"uint256","internalType":"Field.Type"},{"name":"z","type":"uint256","internalType":"Field.Type"}],"outputs":[{"name":"","type":"uint256","internalType":"Field.Type"}],"stateMutability":"pure"}],"bytecode":{"object":"0x6080604052348015600e575f5ffd5b50612ac18061001c5f395ff3fe608060405234801561000f575f5ffd5b5060043610610055575f3560e01c8063055d8d541461005957806340ec6e4914610089578063664db65a146100b95780636bdcae5c146100e9578063e16f620014610119575b5f5ffd5b610073600480360381019061006e9190612601565b610149565b6040516100809190612678565b60405180910390f35b6100a3600480360381019061009e91906127e1565b61015c565b6040516100b09190612678565b60405180910390f35b6100d360048036038101906100ce9190612887565b610170565b6040516100e09190612678565b60405180910390f35b61010360048036038101906100fe91906128f3565b610185565b6040516101109190612678565b60405180910390f35b610133600480360381019061012e919061291e565b610196565b6040516101409190612678565b60405180910390f35b5f61015483836101ab565b905092915050565b5f6101698283515f610257565b9050919050565b5f61017c848484610257565b90509392505050565b5f61018f82610274565b9050919050565b5f6101a28484846102fe565b90509392505050565b5f5f600267ffffffffffffffff8111156101c8576101c76126a5565b5b6040519080825280602002602001820160405280156101f65781602001602082028036833780820191505090505b50905083815f8151811061020d5761020c61296e565b5b602002602001018181525050828160018151811061022e5761022d61296e565b5b60200260200101818152505061024e6102456103cc565b8260025f611914565b91505092915050565b5f61026b6102636103cc565b858585611914565b90509392505050565b5f5f600167ffffffffffffffff811115610291576102906126a5565b5b6040519080825280602002602001820160405280156102bf5781602001602082028036833780820191505090505b50905082815f815181106102d6576102d561296e565b5b6020026020010181815250506102f66102ed6103cc565b8260015f611914565b915050919050565b5f5f600367ffffffffffffffff81111561031b5761031a6126a5565b5b6040519080825280602002602001820160405280156103495781602001602082028036833780820191505090505b50905084815f815181106103605761035f61296e565b5b60200260200101818152505083816001815181106103815761038061296e565b5b60200260200101818152505082816002815181106103a2576103a161296e565b5b6020026020010181815250506103c26103b96103cc565b8260035f611914565b9150509392505050565b6103d46124de565b604051806040016040528060405180608001604052807f10dc6e9c006ea38b04b1e03b4bd9490c0d03f98929ca1d7fb56821fd19d3b6e781526020017f0c28145b6a44df3e0149b3d0a30b3bb599df9756d4dd9b84a86b38cfb45a740b81526020017e544b8338791518b2c7645a50392798b21f75bb60e3596170067d00141cac1581526020017f222c01175718386f2e2e82eb122789e352e105a3b8fa852613bc534433ee428b815250815260200160405180610800016040528060405180608001604052807f19b849f69450b06848da1d39bd5e4a4302bb86744edc26238b0878e269ed23e581526020017f265ddfe127dd51bd7239347b758f0a1320eb2cc7450acc1dad47f80c8dcf34d681526020017f199750ec472f1809e0f66a545e1e51624108ac845015c2aa3dfc36bab497d8aa81526020017f157ff3fe65ac7208110f06a5f74302b14d743ea25067f0ffd032f787c7f1cdf8815250815260200160405180608001604052807f2e49c43c4569dd9c5fd35ac45fca33f10b15c590692f8beefe18f4896ac9490281526020017f0e35fb89981890520d4aef2b6d6506c3cb2f0b6973c24fa82731345ffa2d1f1e81526020017f251ad47cb15c4f1105f109ae5e944f1ba9d9e7806d667ffec6fe723002e0b99681526020017f13da07dc64d428369873e97160234641f8beb56fdd05e5f3563fa39d9c22df4e815250815260200160405180608001604052807f0c009b84e650e6d23dc00c7dccef7483a553939689d350cd46e7b89055fd473881526020017f011f16b1c63a854f01992e3956f42d8b04eb650c6d535eb0203dec74befdca0681526020017f0ed69e5e383a688f209d9a561daa79612f3f78d0467ad45485df07093f36754981526020017f04dba94a7b0ce9e221acad41472b6bbe3aec507f5eb3d33f463672264c9f789b815250815260200160405180608001604052807f0a3f2637d840f3a16eb094271c9d237b6036757d4bb50bf7ce732ff1d4fa28e881526020017f259a666f129eea198f8a1c502fdb38fa39b1f075569564b6e54a485d1182323f81526020017f28bf7459c9b2f4c6d8e7d06a4ee3a47f7745d4271038e5157a32fdf7ede0d6a181526020017f0a1ca941f057037526ea200f489be8d4c37c85bbcce6a2aeec91bd6941432447815250815260200160405180608001604052807f0c6f8f958be0e93053d7fd4fc54512855535ed1539f051dcb43a26fd926361cf81526020015f81526020015f81526020015f815250815260200160405180608001604052807f123106a93cd17578d426e8128ac9d90aa9e8a00708e296e084dd57e69caaf81181526020015f81526020015f81526020015f815250815260200160405180608001604052807f26e1ba52ad9285d97dd3ab52f8e840085e8fa83ff1e8f1877b074867cd2dee7581526020015f81526020015f81526020015f815250815260200160405180608001604052807f1cb55cad7bd133de18a64c5c47b9c97cbe4d8b7bf9e095864471537e6a4ae2c581526020015f81526020015f81526020015f815250815260200160405180608001604052807f1dcd73e46acd8f8e0e2c7ce04bde7f6d2a53043d5060a41c7143f08e6e9055d081526020015f81526020015f81526020015f815250815260200160405180608001604052807f011003e32f6d9c66f5852f05474a4def0cda294a0eb4e9b9b12b9bb4512e557481526020015f81526020015f81526020015f815250815260200160405180608001604052807f2b1e809ac1d10ab29ad5f20d03a57dfebadfe5903f58bafed7c508dd2287ae8c81526020015f81526020015f81526020015f815250815260200160405180608001604052807f2539de1785b735999fb4dac35ee17ed0ef995d05ab2fc5faeaa69ae87bcec0a581526020015f81526020015f81526020015f815250815260200160405180608001604052807f0c246c5a2ef8ee0126497f222b3e0a0ef4e1c3d41c86d46e43982cb11d77951d81526020015f81526020015f81526020015f815250815260200160405180608001604052807f192089c4974f68e95408148f7c0632edbb09e6a6ad1a1c2f3f0305f5d03b527b81526020015f81526020015f81526020015f815250815260200160405180608001604052807f1eae0ad8ab68b2f06a0ee36eeb0d0c058529097d91096b756d8fdc2fb5a60d8581526020015f81526020015f81526020015f815250815260200160405180608001604052807f179190e5d0e22179e46f8282872abc88db6e2fdc0dee99e69768bd98c5d06bfb81526020015f81526020015f81526020015f815250815260200160405180608001604052807f29bb9e2c9076732576e9a81c7ac4b83214528f7db00f31bf6cafe794a9b3cd1c81526020015f81526020015f81526020015f815250815260200160405180608001604052807f225d394e42207599403efd0c2464a90d52652645882aac35b10e590e6e691e0881526020015f81526020015f81526020015f815250815260200160405180608001604052807f064760623c25c8cf753d238055b444532be13557451c087de09efd454b23fd5981526020015f81526020015f81526020015f815250815260200160405180608001604052807f10ba3a0e01df92e87f301c4b716d8a394d67f4bf42a75c10922910a78f6b5b8781526020015f81526020015f81526020015f815250815260200160405180608001604052807f0e070bf53f8451b24f9c6e96b0c2a801cb511bc0c242eb9d361b77693f21471c81526020015f81526020015f81526020015f815250815260200160405180608001604052807f1b94cd61b051b04dd39755ff93821a73ccd6cb11d2491d8aa7f921014de252fb81526020015f81526020015f81526020015f815250815260200160405180608001604052807f1d7cb39bafb8c744e148787a2e70230f9d4e917d5713bb050487b5aa7d74070b81526020015f81526020015f81526020015f815250815260200160405180608001604052807f2ec93189bd1ab4f69117d0fe980c80ff8785c2961829f701bb74ac1f303b17db81526020015f81526020015f81526020015f815250815260200160405180608001604052807f2db366bfdd36d277a692bb825b86275beac404a19ae07a9082ea46bd8351792681526020015f81526020015f81526020015f815250815260200160405180608001604052807f062100eb485db06269655cf186a68532985275428450359adc99cec6960711b881526020015f81526020015f81526020015f815250815260200160405180608001604052807f0761d33c66614aaa570e7f1e8244ca1120243f92fa59e4f900c567bf41f5a59b81526020015f81526020015f81526020015f815250815260200160405180608001604052807f20fc411a114d13992c2705aa034e3f315d78608a0f7de4ccf7a72e494855ad0d81526020015f81526020015f81526020015f815250815260200160405180608001604052807f25b5c004a4bdfcb5add9ec4e9ab219ba102c67e8b3effb5fc3a30f317250bc5a81526020015f81526020015f81526020015f815250815260200160405180608001604052807f23b1822d278ed632a494e58f6df6f5ed038b186d8474155ad87e7dff62b37f4b81526020015f81526020015f81526020015f815250815260200160405180608001604052807f22734b4c5c3f9493606c4ba9012499bf0f14d13bfcfcccaa16102a29cc2f69e081526020015f81526020015f81526020015f815250815260200160405180608001604052807f26c0c8fe09eb30b7e27a74dc33492347e5bdff409aa3610254413d3fad795ce581526020015f81526020015f81526020015f815250815260200160405180608001604052807f070dd0ccb6bd7bbae88eac03fa1fbb26196be3083a809829bbd626df348ccad981526020015f81526020015f81526020015f815250815260200160405180608001604052807f12b6595bdb329b6fb043ba78bb28c3bec2c0a6de46d8c5ad6067c4ebfd4250da81526020015f81526020015f81526020015f815250815260200160405180608001604052807f248d97d7f76283d63bec30e7a5876c11c06fca9b275c671c5e33d95bb7e8d72981526020015f81526020015f81526020015f815250815260200160405180608001604052807f1a306d439d463b0816fc6fd64cc939318b45eb759ddde4aa106d15d9bd9baaaa81526020015f81526020015f81526020015f815250815260200160405180608001604052807f28a8f8372e3c38daced7c00421cb4621f4f1b54ddc27821b0d62d3d6ec7c56cf81526020015f81526020015f81526020015f815250815260200160405180608001604052807e94975717f9a8a8bb35152f24d43294071ce320c829f388bc852183e1e2ce7e81526020015f81526020015f81526020015f815250815260200160405180608001604052807f04d5ee4c3aa78f7d80fde60d716480d3593f74d4f653ae83f4103246db2e8d6581526020015f81526020015f81526020015f815250815260200160405180608001604052807f2a6cf5e9aa03d4336349ad6fb8ed2269c7bef54b8822cc76d08495c12efde18781526020015f81526020015f81526020015f815250815260200160405180608001604052807f2304d31eaab960ba9274da43e19ddeb7f792180808fd6e43baae48d7efcba3f381526020015f81526020015f81526020015f815250815260200160405180608001604052807f03fd9ac865a4b2a6d5e7009785817249bff08a7e0726fcb4e1c11d39d199f0b081526020015f81526020015f81526020015f815250815260200160405180608001604052807eb7258ded52bbda2248404d55ee5044798afc3a209193073f7954d4d63b0b6481526020015f81526020015f81526020015f815250815260200160405180608001604052807f159f81ada0771799ec38fca2d4bf65ebb13d3a74f3298db36272c5ca65e92d9a81526020015f81526020015f81526020015f815250815260200160405180608001604052807f1ef90e67437fbc8550237a75bc28e3bb9000130ea25f0c5471e144cf4264431f81526020015f81526020015f81526020015f815250815260200160405180608001604052807f1e65f838515e5ff0196b49aa41a2d2568df739bc176b08ec95a79ed82932e30d81526020015f81526020015f81526020015f815250815260200160405180608001604052807f2b1b045def3a166cec6ce768d079ba74b18c844e570e1f826575c1068c94c33f81526020015f81526020015f81526020015f815250815260200160405180608001604052807f0832e5753ceb0ff6402543b1109229c165dc2d73bef715e3f1c6e07c168bb17381526020015f81526020015f81526020015f815250815260200160405180608001604052807f02f614e9cedfb3dc6b762ae0a37d41bab1b841c2e8b6451bc5a8e3c390b6ad1681526020015f81526020015f81526020015f815250815260200160405180608001604052807f0e2427d38bd46a60dd640b8e362cad967370ebb777bedff40f6a0be27e7ed70581526020015f81526020015f81526020015f815250815260200160405180608001604052807f0493630b7c670b6deb7c84d414e7ce79049f0ec098c3c7c50768bbe29214a53a81526020015f81526020015f81526020015f815250815260200160405180608001604052807f22ead100e8e482674decdab17066c5a26bb1515355d5461a3dc06cc85327cea981526020015f81526020015f81526020015f815250815260200160405180608001604052807f25b3e56e655b42cdaae2626ed2554d48583f1ae35626d04de5084e0b6d2a6f1681526020015f81526020015f81526020015f815250815260200160405180608001604052807f1e32752ada8836ef5837a6cde8ff13dbb599c336349e4c584b4fdc0a0cf6f9d081526020015f81526020015f81526020015f815250815260200160405180608001604052807f2fa2a871c15a387cc50f68f6f3c3455b23c00995f05078f672a9864074d412e581526020015f81526020015f81526020015f815250815260200160405180608001604052807f2f569b8a9a4424c9278e1db7311e889f54ccbf10661bab7fcd18e7c7a7d8350581526020015f81526020015f81526020015f815250815260200160405180608001604052807f044cb455110a8fdd531ade530234c518a7df93f7332ffd2144165374b246b43d81526020015f81526020015f81526020015f815250815260200160405180608001604052807f227808de93906d5d420246157f2e42b191fe8c90adfe118178ddc723a531902581526020015f81526020015f81526020015f815250815260200160405180608001604052807f02fcca2934e046bc623adead873579865d03781ae090ad4a8579d2e7a680035581526020015f81526020015f81526020015f815250815260200160405180608001604052807f0ef915f0ac120b876abccceb344a1d36bad3f3c5ab91a8ddcbec2e060d8befac81526020015f81526020015f81526020015f815250815260200160405180608001604052807f1797130f4b7a3e1777eb757bc6f287f6ab0fb85f6be63b09f3b16ef2b1405d3881526020017f0a76225dc04170ae3306c85abab59e608c7f497c20156d4d36c668555decc6e581526020017f1fffb9ec1992d66ba1e77a7b93209af6f8fa76d48acb664796174b5326a31a5c81526020017f25721c4fc15a3f2853b57c338fa538d85f8fbba6c6b9c6090611889b797b9c5f815250815260200160405180608001604052807f0c817fd42d5f7a41215e3d07ba197216adb4c3790705da95eb63b982bfcaf75a81526020017f13abe3f5239915d39f7e13c2c24970b6df8cf86ce00a22002bc15866e52b5a9681526020017f2106feea546224ea12ef7f39987a46c85c1bc3dc29bdbd7a92cd60acb4d391ce81526020017f21ca859468a746b6aaa79474a37dab49f1ca5a28c748bc7157e1b3345bb0f959815250815260200160405180608001604052807f05ccd6255c1e6f0c5cf1f0df934194c62911d14d0321662a8f1a48999e34185b81526020017f0f0e34a64b70a626e464d846674c4c8816c4fb267fe44fe6ea28678cb09490a481526020017f0558531a4e25470c6157794ca36d0e9647dbfcfe350d64838f5b1a8a2de0d4bf81526020017f09d3dca9173ed2faceea125157683d18924cadad3f655a60b72f5864961f1455815250815260200160405180608001604052807f0328cbd54e8c0913493f866ed03d218bf23f92d68aaec48617d4c722e5bd433581526020017f2bf07216e2aff0a223a487b1a7094e07e79e7bcc9798c648ee3347dd5329d34b81526020017f1daf345a58006b736499c583cb76c316d6f78ed6a6dffc82111e11a63fe412df81526020017f176563472456aaa746b694c60e1823611ef39039b2edc7ff391e6f2293d2c404815250815250815250905090565b5f5f61192961192386516119a9565b876119b6565b90505f5b8551811015611979578481101561196c5761196b8682815181106119545761195361296e565b5b602002602001015183611a5690919063ffffffff16565b5b808060010191505061192d565b50821561199557611994600182611a5690919063ffffffff16565b5b61199e81611b0d565b915050949350505050565b5f604082901b9050919050565b6119be612504565b5f6040518060c0016040528085815260200160405180606001604052805f81526020015f81526020015f815250815260200160405180608001604052805f81526020015f81526020015f81526020015f81525081526020015f81526020015f15158152602001848152509050838160400151600360048110611a4357611a4261296e565b5b6020020181815250508091505092915050565b8160800151158015611a6c575060038260600151145b15611aac57611a7a82611c6b565b508082602001515f60038110611a9357611a9261296e565b5b6020020181815250506001826060018181525050611b09565b8160800151158015611ac357506003826060015114155b15611b0857808260200151836060015160038110611ae457611ae361296e565b5b602002018181525050600182606001818151611b0091906129c8565b915081815250505b5b5050565b5f8160800151611b92575f611b2183611c6b565b905060018360800190151590811515815250505f5b6003811015611b8457818160038110611b5257611b5161296e565b5b602002015184602001518260038110611b6e57611b6d61296e565b5b6020020181815250508080600101915050611b36565b506003836060018181525050505b5f82602001515f60038110611baa57611ba961296e565b5b602002015190505f600190505b6003811015611c22578360600151811015611c155783602001518160038110611be357611be261296e565b5b60200201518460200151600183611bfa91906129fb565b60038110611c0b57611c0a61296e565b5b6020020181815250505b8080600101915050611bb7565b50600183606001818151611c3691906129fb565b915081815250505f8360200151846060015160038110611c5957611c5861296e565b5b60200201818152505080915050919050565b611c7361254b565b5f5b6003811015611cb85782606001518110611cab575f83602001518260038110611ca157611ca061296e565b5b6020020181815250505b8080600101915050611c75565b505f5b6003811015611d3a57611d0d83602001518260038110611cde57611cdd61296e565b5b602002015184604001518360048110611cfa57611cf961296e565b5b6020020151611dd990919063ffffffff16565b83604001518260048110611d2457611d2361296e565b5b6020020181815250508080600101915050611cbb565b50611d5982604001518360a001515f01518460a0015160200151611e06565b82604001819052505f60405180606001604052805f81526020015f81526020015f81525090505f5b6003811015611dcf5783604001518160048110611da157611da061296e565b5b6020020151828260038110611db957611db861296e565b5b6020020181815250508080600101915050611d81565b5080915050919050565b5f7f30644e72e131a029b85045b68181585d2833e84879b9709143e1f593f0000001828408905092915050565b611e0e61256d565b5f60405180608001604052805f81526020015f81526020015f81526020015f81525090505f5b6004811015611e7e57858160048110611e5057611e4f61296e565b5b6020020151828260048110611e6857611e6761296e565b5b6020020181815250508080600101915050611e34565b50611e888161200a565b5f60026008611e979190612a5b565b90505f5b81811015611ecd57611eae838683612279565b611eb78361230b565b611ec08361200a565b8080600101915050611e9b565b505f603882611edc91906129c8565b90505f8290505b81811015611fb257611f43868260408110611f0157611f0061296e565b5b60200201515f60048110611f1857611f1761296e565b5b6020020151855f60048110611f3057611f2f61296e565b5b6020020151611dd990919063ffffffff16565b845f60048110611f5657611f5561296e565b5b602002018181525050611f7f845f60048110611f7557611f7461296e565b5b6020020151612363565b845f60048110611f9257611f9161296e565b5b602002018181525050611fa584886123a7565b8080600101915050611ee3565b505f60386008611fc291906129c8565b90505f8290505b81811015611ffb57611fdc858883612279565b611fe58561230b565b611fee8561200a565b8080600101915050611fc9565b50839450505050509392505050565b5f61204d826001600481106120225761202161296e565b5b6020020151835f6004811061203a5761203961296e565b5b6020020151611dd990919063ffffffff16565b90505f612093836003600481106120675761206661296e565b5b6020020151846002600481106120805761207f61296e565b5b6020020151611dd990919063ffffffff16565b90505f6120d9846001600481106120ad576120ac61296e565b5b6020020151856001600481106120c6576120c561296e565b5b6020020151611dd990919063ffffffff16565b90506120ee8282611dd990919063ffffffff16565b90505f612134856003600481106121085761210761296e565b5b6020020151866003600481106121215761212061296e565b5b6020020151611dd990919063ffffffff16565b90506121498482611dd990919063ffffffff16565b90505f61215f8485611dd990919063ffffffff16565b90506121748182611dd990919063ffffffff16565b90506121898282611dd990919063ffffffff16565b90505f61219f8687611dd990919063ffffffff16565b90506121b48182611dd990919063ffffffff16565b90506121c98482611dd990919063ffffffff16565b90505f6121df8285611dd990919063ffffffff16565b90505f6121f58487611dd990919063ffffffff16565b905081895f6004811061220b5761220a61296e565b5b60200201818152505082896001600481106122295761222861296e565b5b60200201818152505080896002600481106122475761224661296e565b5b60200201818152505083896003600481106122655761226461296e565b5b602002018181525050505050505050505050565b5f5b6004811015612305576122dc83836040811061229a5761229961296e565b5b602002015182600481106122b1576122b061296e565b5b60200201518583600481106122c9576122c861296e565b5b6020020151611dd990919063ffffffff16565b8482600481106122ef576122ee61296e565b5b602002018181525050808060010191505061227b565b50505050565b5f5b600481101561235f5761233682826004811061232c5761232b61296e565b5b6020020151612363565b8282600481106123495761234861296e565b5b602002018181525050808060010191505061230d565b5050565b5f5f61237883846124b190919063ffffffff16565b905061239f8361239183846124b190919063ffffffff16565b6124b190919063ffffffff16565b915050919050565b5f5f90505f5b60048110156123ef576123e08482600481106123cc576123cb61296e565b5b602002015183611dd990919063ffffffff16565b915080806001019150506123ad565b505f5b60048110156124ab5761243c8382600481106124115761241061296e565b5b60200201518583600481106124295761242861296e565b5b60200201516124b190919063ffffffff16565b84826004811061244f5761244e61296e565b5b6020020181815250506124828285836004811061246f5761246e61296e565b5b6020020151611dd990919063ffffffff16565b8482600481106124955761249461296e565b5b60200201818152505080806001019150506123f2565b50505050565b5f7f30644e72e131a029b85045b68181585d2833e84879b9709143e1f593f0000001828409905092915050565b60405180604001604052806124f161256d565b81526020016124fe61258f565b81525090565b6040518060c001604052805f815260200161251d61254b565b815260200161252a61256d565b81526020015f81526020015f151581526020016125456124de565b81525090565b6040518060600160405280600390602082028036833780820191505090505090565b6040518060800160405280600490602082028036833780820191505090505090565b6040518061080001604052806040905b6125a761256d565b81526020019060019003908161259f5790505090565b5f604051905090565b5f5ffd5b5f5ffd5b5f819050919050565b6125e0816125ce565b81146125ea575f5ffd5b50565b5f813590506125fb816125d7565b92915050565b5f5f60408385031215612617576126166125c6565b5b5f612624858286016125ed565b9250506020612635858286016125ed565b9150509250929050565b5f819050919050565b5f61266261265d612658846125ce565b61263f565b6125ce565b9050919050565b61267281612648565b82525050565b5f60208201905061268b5f830184612669565b92915050565b5f5ffd5b5f601f19601f8301169050919050565b7f4e487b71000000000000000000000000000000000000000000000000000000005f52604160045260245ffd5b6126db82612695565b810181811067ffffffffffffffff821117156126fa576126f96126a5565b5b80604052505050565b5f61270c6125bd565b905061271882826126d2565b919050565b5f67ffffffffffffffff821115612737576127366126a5565b5b602082029050602081019050919050565b5f5ffd5b5f61275e6127598461271d565b612703565b9050808382526020820190506020840283018581111561278157612780612748565b5b835b818110156127aa578061279688826125ed565b845260208401935050602081019050612783565b5050509392505050565b5f82601f8301126127c8576127c7612691565b5b81356127d884826020860161274c565b91505092915050565b5f602082840312156127f6576127f56125c6565b5b5f82013567ffffffffffffffff811115612813576128126125ca565b5b61281f848285016127b4565b91505092915050565b612831816125ce565b811461283b575f5ffd5b50565b5f8135905061284c81612828565b92915050565b5f8115159050919050565b61286681612852565b8114612870575f5ffd5b50565b5f813590506128818161285d565b92915050565b5f5f5f6060848603121561289e5761289d6125c6565b5b5f84013567ffffffffffffffff8111156128bb576128ba6125ca565b5b6128c7868287016127b4565b93505060206128d88682870161283e565b92505060406128e986828701612873565b9150509250925092565b5f60208284031215612908576129076125c6565b5b5f612915848285016125ed565b91505092915050565b5f5f5f60608486031215612935576129346125c6565b5b5f612942868287016125ed565b9350506020612953868287016125ed565b9250506040612964868287016125ed565b9150509250925092565b7f4e487b71000000000000000000000000000000000000000000000000000000005f52603260045260245ffd5b7f4e487b71000000000000000000000000000000000000000000000000000000005f52601160045260245ffd5b5f6129d2826125ce565b91506129dd836125ce565b92508282019050808211156129f5576129f461299b565b5b92915050565b5f612a05826125ce565b9150612a10836125ce565b9250828203905081811115612a2857612a2761299b565b5b92915050565b7f4e487b71000000000000000000000000000000000000000000000000000000005f52601260045260245ffd5b5f612a65826125ce565b9150612a70836125ce565b925082612a8057612a7f612a2e565b5b82820490509291505056fea2646970667358221220db36da59bbab967c1eed74294ecb24630ba9b88069f48d190e1fe3266522deaa64736f6c634300081c0033","linkReferences":{}},"methodIdentifiers":{"hash(uint256[])":"40ec6e49","hash(uint256[],uint256,bool)":"664db65a","hash_1(uint256)":"6bdcae5c","hash_2(uint256,uint256)":"055d8d54","hash_3(uint256,uint256,uint256)":"e16f6200"},"id":2}