{"abi":[{"type":"function","name":"verify","inputs":[{"name":"proof","type":"bytes","internalType":"bytes"},{"name":"publicInputs","type":"bytes32[]","internalType":"bytes32[]"}],"outputs":[{"name":"","type":"bool","internalType":"bool"}],"stateMutability":"view"},{"type":"error","name":"ProofLengthWrong","inputs":[]},{"type":"error","name":"PublicInputsLengthWrong","inputs":[]},{"type":"error","name":"ShpleminiFailed","inputs":[]},{"type":"error","name":"SumcheckFailed","inputs":[]}],"bytecode":{"object":"0x60e060405234801561000f575f5ffd5b50611000600c600382608081815250508160a081815250508060c0818152505050505060805160a05160c05161759f61006a5f395f61073a01525f81816107fa015281816111ab015261128101525f6106cf015261759f5ff3fe608060405234801561000f575f5ffd5b5060043610610029575f3560e01c8063ea50d0e41461002d575b5f5ffd5b61004760048036038101906100429190616986565b61005d565b6040516100549190616a1e565b60405180910390f35b5f60206101b861006d9190616a6d565b85859050146100a8576040517fed74ac0a00000000000000000000000000000000000000000000000000000000815260040160405180910390fd5b5f6100b1610222565b90505f6100be8787610237565b905081604001518585905014610100576040517ffa06659300000000000000000000000000000000000000000000000000000000815260040160405180910390fd5b5f610117828787865f0151876040015160016105ea565b90506101748686808060200260200160405190810160405280939291908181526020018383602002808284375f81840152601f19601f82011690508083019250505050505050825f015160600151835f01516080015160016106b5565b815f015160a00181815250505f61018b83836107ef565b9050806101c4576040517f9fc3a21800000000000000000000000000000000000000000000000000000000815260040160405180910390fd5b5f6101d0848685610916565b905080610209576040517fa5d82e8a00000000000000000000000000000000000000000000000000000000815260040160405180910390fd5b8180156102135750805b95505050505050949350505050565b61022a6161a6565b610232611610565b905090565b61023f616324565b61025a83835f9060809261025593929190616ab6565b611f81565b815f018190525061027e83836080906101009261027993929190616ab6565b611f81565b81602001819052506102a48383610100906101809261029f93929190616ab6565b611f81565b81604001819052506102ca838361018090610200926102c593929190616ab6565b611f81565b8160a001819052506102f0838361020090610280926102eb93929190616ab6565b611f81565b8160c001819052506103168383610280906103009261031193929190616ab6565b611f81565b816060018190525061033c8383610300906103809261033793929190616ab6565b611f81565b8160e001819052506103628383610380906104009261035d93929190616ab6565b611f81565b81608001819052505f61040090505f5f90505b601c811015610414575f5f90505b6008811015610406576103b2868685906020876103a09190616af0565b926103ad93929190616ab6565b612077565b84610100015183601c81106103ca576103c9616b23565b5b602002015182600881106103e1576103e0616b23565b5b6020020181815250506020836103f79190616af0565b92508080600101915050610383565b508080600101915050610375565b505f5f90505b602881101561048657610449858584906020866104379190616af0565b9261044493929190616ab6565b612077565b836101200151826028811061046157610460616b23565b5b6020020181815250506020826104779190616af0565b9150808060010191505061041a565b505f5f90505b6001601c61049a9190616b50565b811015610503576104c7858584906080866104b59190616af0565b926104c293929190616ab6565b611f81565b83610140015182601b81106104df576104de616b23565b5b60200201819052506080826104f49190616af0565b9150808060010191505061048c565b505f5f90505b601c81101561057557610538858584906020866105269190616af0565b9261053393929190616ab6565b612077565b83610160015182601c81106105505761054f616b23565b5b6020020181815250506020826105669190616af0565b91508080600101915050610509565b5061059c8484839060808561058a9190616af0565b9261059793929190616ab6565b611f81565b8261018001819052506080816105b29190616af0565b90506105da848483906080856105c89190616af0565b926105d593929190616ab6565b611f81565b826101a001819052505092915050565b6105f26163e7565b5f610602888888888888876120db565b835f018193508290525050610617818961213c565b83602001819350829052505061062c81612455565b83604001819350829052505061064288826124de565b8360600181935082905250506106588882612607565b8360800181935082815250505061066f88826126db565b8360a00181935082815250505061068688826128c9565b8360c00181935082815250505061069d888261299d565b8360e001819350828152505050509695505050505050565b5f5f600190505f600190505f61070786610702896106fd897f00000000000000000000000000000000000000000000000000000000000000006106f89190616af0565b612aab565b612adf565b612b1a565b90505f6107318761072c8a61072760018b6107229190616af0565b612aab565b612adf565b612b55565b90505f5f90505b7f00000000000000000000000000000000000000000000000000000000000000008110156107d6575f6107848b838151811061077757610776616b23565b5b6020026020010151612bbb565b9050610799866107948684612b1a565b612adf565b95506107ae856107a98584612b1a565b612adf565b94506107ba848b612b1a565b93506107c6838b612b55565b9250508080600101915050610738565b506107e18484612bf1565b945050505050949350505050565b5f5f5f600190505f5b7f00000000000000000000000000000000000000000000000000000000000000008110156108e5575f86610100015182601c811061083957610838616b23565b5b602002015190505f61084b8286612c0c565b905080610884576040517f9fc3a21800000000000000000000000000000000000000000000000000000000815260040160405180910390fd5b5f876060015184601c811061089c5761089b616b23565b5b602002015190506108ad8382612c5c565b95506108d5886040015185601c81106108c9576108c8616b23565b5b60200201518683612e49565b94505050508060010190506107f8565b505f6108ff866101200151865f0151876020015185612e7f565b905061090b8184612ef8565b935050505092915050565b5f61091f616440565b5f61092d8460a00151612f04565b9050610937616483565b61093f6164a6565b61096c6109678760e00151855f601c811061095d5761095c616b23565b5b6020020151612b55565b612f91565b8460a00181815250506109a261099d8760e00151855f601c811061099357610992616b23565b5b6020020151612b1a565b612f91565b8460c00181815250506109ca8460a001516109c58860c001518760c00151612adf565b612b1a565b845f018181525050610a066109e28760a00151612f91565b610a018660a001516109fc8a60c001518960c00151612adf565b612b55565b612adf565b8460200181815250506001825f60468110610a2457610a23616b23565b5b602002018181525050610a3b886101800151613023565b815f60468110610a4e57610a4d616b23565b5b602002018190525060018460600181815250505f8460800181815250505f600190505b60238111610b2657610a92610a88865f0151613062565b8660600151612adf565b838260468110610aa557610aa4616b23565b5b602002018181525050610af18560800151610aec8b6101200151600185610acc9190616b50565b60288110610add57610adc616b23565b5b60200201518860600151612adf565b612b1a565b856080018181525050610b0c85606001518860800151612adf565b85606001818152505080610b1f90616b83565b9050610a71565b505f60016023610b369190616af0565b90505b60288111610bef57610b5b610b518660200151613062565b8660600151612adf565b838260468110610b6e57610b6d616b23565b5b602002018181525050610bba8560800151610bb58b6101200151600185610b959190616b50565b60288110610ba657610ba5616b23565b5b60200201518860600151612adf565b612b1a565b856080018181525050610bd585606001518860800151612adf565b85606001818152505080610be890616b83565b9050610b39565b50866060015181600160468110610c0957610c08616b23565b5b6020020181905250866080015181600260468110610c2a57610c29616b23565b5b60200201819052508660a0015181600360468110610c4b57610c4a616b23565b5b60200201819052508660c0015181600460468110610c6c57610c6b616b23565b5b60200201819052508660e0015181600560468110610c8d57610c8c616b23565b5b602002018190525086610100015181600660468110610caf57610cae616b23565b5b602002018190525086610120015181600760468110610cd157610cd0616b23565b5b602002018190525086610140015181600860468110610cf357610cf2616b23565b5b602002018190525086610160015181600960468110610d1557610d14616b23565b5b6020020181905250866101a0015181600a60468110610d3757610d36616b23565b5b602002018190525086610180015181600b60468110610d5957610d58616b23565b5b6020020181905250866101c0015181600c60468110610d7b57610d7a616b23565b5b6020020181905250866101e0015181600d60468110610d9d57610d9c616b23565b5b602002018190525086610200015181600e60468110610dbf57610dbe616b23565b5b602002018190525086610220015181600f60468110610de157610de0616b23565b5b602002018190525086610240015181601060468110610e0357610e02616b23565b5b602002018190525086610260015181601160468110610e2557610e24616b23565b5b602002018190525086610280015181601260468110610e4757610e46616b23565b5b6020020181905250866102a0015181601360468110610e6957610e68616b23565b5b6020020181905250866102c0015181601460468110610e8b57610e8a616b23565b5b6020020181905250866102e0015181601560468110610ead57610eac616b23565b5b602002018190525086610300015181601660468110610ecf57610ece616b23565b5b602002018190525086610320015181601760468110610ef157610ef0616b23565b5b602002018190525086610340015181601860468110610f1357610f12616b23565b5b602002018190525086610360015181601960468110610f3557610f34616b23565b5b602002018190525086610380015181601a60468110610f5757610f56616b23565b5b6020020181905250866103a0015181601b60468110610f7957610f78616b23565b5b6020020181905250610f8d885f0151613023565b81601c60468110610fa157610fa0616b23565b5b6020020181905250610fb68860200151613023565b81601d60468110610fca57610fc9616b23565b5b6020020181905250610fdf8860400151613023565b81601e60468110610ff357610ff2616b23565b5b60200201819052506110088860600151613023565b81601f6046811061101c5761101b616b23565b5b60200201819052506110318860800151613023565b8160206046811061104557611044616b23565b5b602002018190525061105a8860e00151613023565b8160216046811061106e5761106d616b23565b5b60200201819052506110838860a00151613023565b8160226046811061109757611096616b23565b5b60200201819052506110ac8860c00151613023565b816023604681106110c0576110bf616b23565b5b60200201819052506110d4885f0151613023565b816024604681106110e8576110e7616b23565b5b60200201819052506110fd8860200151613023565b8160256046811061111157611110616b23565b5b60200201819052506111268860400151613023565b8160266046811061113a57611139616b23565b5b602002018190525061114f8860600151613023565b8160276046811061116357611162616b23565b5b60200201819052506111788860800151613023565b8160286046811061118c5761118b616b23565b5b60200201819052505f6111cf876060015186608001518b6101600151877f0000000000000000000000000000000000000000000000000000000000000000613096565b90506111f6815f601c81106111e7576111e6616b23565b5b60200201518660a00151612adf565b856040018181525050611243856040015161123e6112348c61016001515f601c811061122557611224616b23565b5b60200201518b60c00151612adf565b8860c00151612adf565b612b1a565b8560400181815250506112598760c001516131e4565b8560600181815250505f5f90505b6001601c6112759190616b50565b8110156114ee575f60017f00000000000000000000000000000000000000000000000000000000000000006112aa9190616b50565b82101590508061148a576112ed6112e88a60e00151886001866112cd9190616af0565b601c81106112de576112dd616b23565b5b6020020151612b55565b612f91565b8760a001818152505061132f61132a8a60e001518860018661130f9190616af0565b601c81106113205761131f616b23565b5b6020020151612b1a565b612f91565b8760c001818152505061134a87606001518860a00151612adf565b8760e001818152505061137261136888606001518b60c00151612adf565b8860c00151612adf565b8761010001818152505061139f61138d886101000151613062565b61139a8960e00151613062565b612b1a565b8583600160286113af9190616af0565b6113b99190616af0565b604681106113ca576113c9616b23565b5b6020020181815250505f61140b8861010001518d61016001516001866113f09190616af0565b601c811061140157611400616b23565b5b6020020151612adf565b9050611447816114428a60e00151876001886114279190616af0565b601c811061143857611437616b23565b5b6020020151612adf565b612b1a565b9050611457886040015182612b1a565b88604001818152505061147f61147589606001518c60c00151612adf565b8b60c00151612adf565b886060018181525050505b6114af8b610140015183601b81106114a5576114a4616b23565b5b6020020151613023565b8483600160286114bf9190616af0565b6114c99190616af0565b604681106114da576114d9616b23565b5b602002018190525050806001019050611267565b50604051806040016040528060018152602001600281525082601c60286115159190616af0565b6046811061152657611525616b23565b5b6020020181905250846040015183601c60286115429190616af0565b6046811061155357611552616b23565b5b6020020181815250505f61156b8a6101a00151613023565b905080836001601c602861157f9190616af0565b6115899190616af0565b6046811061159a57611599616b23565b5b60200201819052508760e00151846001601c60286115b89190616af0565b6115c29190616af0565b604681106115d3576115d2616b23565b5b6020020181815250505f6115e784866131f6565b90505f6115f3836132c2565b90506115ff8282613336565b985050505050505050509392505050565b6116186161a6565b5f604051806103c001604052806110008152602001600c81526020016003815260200160405180604001604052807f08ee1f1373e9a90059be7afe8fe29b76676ecee5c95ef6a46cb6dd1c0f68edb381526020017f23e46e36bd4e23348b1c8c13523f7fb9bf24f2fe73fb64d79c8c75e47e3ea628815250815260200160405180604001604052807f0ceba2ae7262b0b3321155509c8df4ae5f7642895d67d509c50635a1f836939281526020017f0f322e6edab8b58ce8b6ec33fea272188dc0f17ae45a8094d712aa6264f3f1f0815250815260200160405180604001604052807f1ab4fc878e5e850d4cb7a5721cf02d6b55d8997eef64426e73e0e0a0d1e7ed8881526020017f1dba6127fcfb310b7d37503f0ed3979995b64b3580dfae28b692b5cac70e14c6815250815260200160405180604001604052807f09017967edcad835148688da5b108ba38ddf8335fc49048aeba395554f6fced581526020017f2b0e867241f48f4cd2f87e4c0713c82efc2dce3d189f4c04cd6db4eea87af325815250815260200160405180604001604052807f0c4a46ca32df512bd6452de6aad6388d844b388ab055728e25a6d6e331a488ea81526020017f21cf38afb92f276549720196601f1e0ba0907b9e4969b126014298329a2b6164815250815260200160405180604001604052807f10f97f6e8458ec5e73621d50a2e6b844f970781e091a5db3cd37b2c38f92f62181526020017f2b4c5f08ffb13e470c66cba21ca2f977e28261fdea7bd7714d776d2ca7207002815250815260200160405180604001604052807f2594d00a131b347f472a021eac09e25eacba35749a9ba8f8c7f4a726ff63a91081526020017f2499be5abe1cf5463534a1d0613f82449f1989f1186f2d0b67295bda7f8a0f55815250815260200160405180604001604052807f14d61c4fa8af2b9a480d79236c916da7471956c4b12ca38781ffe257a1c405db81526020017f0bb84991c051c55f8f4ab7b029729ed1aba454d94ffff25256c471e7ade08030815250815260200160405180604001604052807f04f8b03fd26344713a13c694547488f1b7d40ac6a0b6d227f41c0592929a425d81526020017f03cb975f61cde276b963fc8cdf4fc5f11a304926d9da71ef38d4319ab2d86772815250815260200160405180604001604052807f11ca739239ce92c69de87b40ba87603abb538de464f4ee6d0a7b7891705bbc4c81526020017f16d97b75e5be6e6733cce23dce36f2a92c8d44e4a4d668f10149ddaa35430b37815250815260200160405180604001604052807f0d6fd02d2e71dfc645e4daaa49cfe5a5175e9fca40d7ba5ae2aa52fb50239c3a81526020017f2ef70a691e0737722925edde0b9d283eec824a4b579c06e48404ae69739cd4ec815250815260200160405180604001604052807f192503dff288f9f5887e8e0d3516763a4d809454ce8e48c80881b0bf9bc19d1581526020017f2d014708b3047ad7ac46f26254560f0947bb723f3ee5f36344f90693feb14250815250815260200160405180604001604052807f248e1e0087449c12ac4b35a71a3cb62b1e3591238e82405a3ff8402366b0543181526020017e050b78b6e4f21a795ed6b83f368eca74b5a103bc905353c071dc164b861fd4815250815260200160405180604001604052807f07923bcf776ca59c930141f1361697d32816e0d233bd7ed7fa0de0118a6c15fb81526020017f26d3504c012ebae30eead9aa1ad7fd5776b23569dbb52734c0bfffe9cc5c67bc815250815260200160405180604001604052807f0ab785fe2871447fb2c7c6a7a0e055ec8069d5e81dc0aa3f6e2a270e52da87a781526020017f173660d04397dc36c7cf59bbb1bbc0768b03a4fda3e2d9103b2caf67bd15cae8815250815260200160405180604001604052807f0f150666461e3e21a2d7f3a6de5bebe77efb205266a48f378fe48796fa9e629381526020017f1fe255a7c6b6814b1bbecafc2b109e46acba35213c24c492a9113961924c77f4815250815260200160405180604001604052807f0a72826a6a168140b67070eefa5c767b81960fa0955492b796f15a0af051d01a81526020017f2ddfecbc4d24d3a6cda840883d6334ae06729c9273471c1121ff851795ea4c3f815250815260200160405180604001604052807f171d080008dcd2fa39d7c11f6d190ef4846065bd6fdec80be6ba6484b3d229c581526020017f2321e3e0485b38d2e0f7a3219340c575353821fb78b1a2b53953a60b057edcc0815250815260200160405180604001604052807f20278da5be78bc72e4c28896cccd320c5426f7b3e4288efb61c516fb8f1528be81526020017f12079aa267fbd27bafe121e43a687ca3249cec196a831273ac12b92baa2d992a815250815260200160405180604001604052807f0932f2bea076f62782dec8bf5455f7057c05fe88ac298bc9cec31e90cc3d6d9081526020017f200b7117f1787cadf8a17a868d052037151c618ca48ec373df186d170f63eb39815250815260200160405180604001604052807f261612b73426b71159f111995737719fc660f183f9c07e60ee747282f76c253c81526020017f0ab667fba8343da78435fde24f02a739058468ebee655718f7e6a21f2fa90d05815250815260200160405180604001604052807f1fb7c5d789d32e42a08e41296286139f603c7607ce186d0cce6e472dfe02147381526020017f09d80a7c25410f51739aadc54ad122874e4551efc35bd23807ecf23a79ef418a815250815260200160405180604001604052807f108788a192d4d3c38e445629bb550acf212f9b2049b6fb1cc76900bd482fb5b081526020017f195266ac0788c227762333892ad282a4679450ae72e8e8b4a1ead0e63d4f4e04815250815260200160405180604001604052807f192a87ba208ab02639f2453bde4d15e8c489e522f16c07fd8e312a10142484d881526020017f0978af3f655d807c77436eec1810420c3170702a20ae32933baa816253797b15815250815260200160405180604001604052807f1a552bd8d3265d1f23e7ff166cf20fffa5c0688c867cfd3a2ea65452d8ad60a481526020017f1cb1414f7b9f8edb7c7a0d61f66e24e632a4050d9b3be0d6c35109aa9969303981525081526020016040518060400160405280600181526020016002815250815260200160405180604001604052807f2c9446986282c5d1c1c591847bc64a4f1ff05ea21faeb14b5349b67c577e672081526020017f21b80e32891d23c3c26cd95c91961b6e606d421a22d037d3e091ac854d3cdddb81525081525090508091505090565b611f896164d4565b60808383905014611fcf576040517f08c379a0000000000000000000000000000000000000000000000000000000008152600401611fc690616c24565b60405180910390fd5b604051806080016040528084845f90602092611fed93929190616ab6565b90611ff89190616c61565b5f1c8152602001848460209060409261201393929190616ab6565b9061201e9190616c61565b5f1c8152602001848460409060609261203993929190616ab6565b906120449190616c61565b5f1c8152602001848460609060809261205f93929190616ab6565b9061206a9190616c61565b5f1c815250905092915050565b5f602083839050146120be576040517f08c379a00000000000000000000000000000000000000000000000000000000081526004016120b590616d09565b60405180910390fd5b6120d38383906120ce9190616c61565b612bbb565b905092915050565b6120e36164f8565b5f6120f2898989898989613515565b855f0186602001876040018399508481525084815250848152505050505061211a838a6139de565b8460600185608001829550838152508381525050505097509795505050505050565b612144616528565b5f61214d61654b565b84815f6009811061216157612160616b23565b5b6020020181815250508360e001515f01518160016009811061218657612185616b23565b5b6020020181815250508360e0015160200151816002600981106121ac576121ab616b23565b5b6020020181815250508360e0015160400151816003600981106121d2576121d1616b23565b5b6020020181815250508360e0015160600151816004600981106121f8576121f7616b23565b5b60200201818152505083608001515f01518160056009811061221d5761221c616b23565b5b6020020181815250508360800151602001518160066009811061224357612242616b23565b5b6020020181815250508360800151604001518160076009811061226957612268616b23565b5b6020020181815250508360800151606001518160086009811061228f5761228e616b23565b5b6020020181815250506122c7816040516020016122ac9190616dcc565b60405160208183030381529060405280519060200120612bbb565b91506122d282613c35565b845f601981106122e5576122e4616b23565b5b60200201856001601981106122fd576122fc616b23565b5b60200201828152508281525050505f600190505b6002601961231f9190616e14565b8110156123c9576123558360405160200161233a9190616e64565b60405160208183030381529060405280519060200120612bbb565b925061236083613c35565b8583600261236e9190616a6d565b6019811061237f5761237e616b23565b5b602002018660018560026123939190616a6d565b61239d9190616af0565b601981106123ae576123ad616b23565b5b60200201828152508281525050508080600101915050612311565b506001806019161480156123de575060026019115b1561244d57612412826040516020016123f79190616e64565b60405160208183030381529060405280519060200120612bbb565b91505f61241e83613c35565b856001601961242d9190616b50565b6019811061243e5761243d616b23565b5b60200201819350828152505050505b509250929050565b61245d61656e565b5f5f5f90505b601c8110156124d55761249b846040516020016124809190616e64565b60405160208183030381529060405280519060200120612bbb565b93505f6124a785613c35565b8584601c81106124ba576124b9616b23565b5b60200201819350828152505050508080600101915050612463565b50829050915091565b6124e661656e565b5f5f5f90505b601c8110156125fc576124fd616591565b84815f6009811061251157612510616b23565b5b6020020181815250505f5f90505b60088110156125915786610100015183601c81106125405761253f616b23565b5b6020020151816008811061255757612556616b23565b5b60200201518260018361256a9190616af0565b6009811061257b5761257a616b23565b5b602002018181525050808060010191505061251f565b506125c1816040516020016125a69190616f43565b60405160208183030381529060405280519060200120612bbb565b94505f6125cd86613c35565b8685601c81106125e0576125df616b23565b5b60200201819350828152505050505080806001019150506124ec565b508290509250929050565b5f5f6126116165b4565b83815f6029811061262557612624616b23565b5b6020020181815250505f5f90505b602881101561268e57856101200151816028811061265457612653616b23565b5b6020020151826001836126679190616af0565b6029811061267857612677616b23565b5b6020020181815250508080600101915050612633565b506126be816040516020016126a39190616fdd565b60405160208183030381529060405280519060200120612bbb565b91505f6126ca83613c35565b809250819550505050509250929050565b5f5f6126e56165d7565b83815f606d81106126f9576126f8616b23565b5b6020020181815250505f5f90505b6001601c6127159190616b50565b81101561287c5785610140015181601b811061273457612733616b23565b5b60200201515f01518260048361274a9190616a6d565b60016127569190616af0565b606d811061276757612766616b23565b5b60200201818152505085610140015181601b811061278857612787616b23565b5b6020020151602001518260048361279f9190616a6d565b60026127ab9190616af0565b606d81106127bc576127bb616b23565b5b60200201818152505085610140015181601b81106127dd576127dc616b23565b5b602002015160400151826004836127f49190616a6d565b60036128009190616af0565b606d811061281157612810616b23565b5b60200201818152505085610140015181601b811061283257612831616b23565b5b602002015160600151826004836128499190616a6d565b60046128559190616af0565b606d811061286657612865616b23565b5b6020020181815250508080600101915050612707565b506128ac816040516020016128919190617077565b60405160208183030381529060405280519060200120612bbb565b91505f6128b883613c35565b809250819550505050509250929050565b5f5f6128d36165fa565b83815f601d81106128e7576128e6616b23565b5b6020020181815250505f5f90505b601c8110156129505785610160015181601c811061291657612915616b23565b5b6020020151826001836129299190616af0565b601d811061293a57612939616b23565b5b60200201818152505080806001019150506128f5565b50612980816040516020016129659190617111565b60405160208183030381529060405280519060200120612bbb565b91505f61298c83613c35565b809250819550505050509250929050565b5f5f6129a761661d565b83815f600581106129bb576129ba616b23565b5b6020020181815250508461018001515f0151816001600581106129e1576129e0616b23565b5b6020020181815250508461018001516020015181600260058110612a0857612a07616b23565b5b6020020181815250508461018001516040015181600360058110612a2f57612a2e616b23565b5b6020020181815250508461018001516060015181600460058110612a5657612a55616b23565b5b602002018181525050612a8e81604051602001612a7391906171ab565b60405160208183030381529060405280519060200120612bbb565b91505f612a9a83613c35565b809250819550505050509250929050565b5f7f30644e72e131a029b85045b68181585d2833e84879b9709143e1f593f000000182612ad891906171c5565b9050919050565b5f7f30644e72e131a029b85045b68181585d2833e84879b9709143e1f593f000000180612b0f57612b0e616de7565b5b828409905092915050565b5f7f30644e72e131a029b85045b68181585d2833e84879b9709143e1f593f000000180612b4a57612b49616de7565b5b828408905092915050565b5f7f30644e72e131a029b85045b68181585d2833e84879b9709143e1f593f000000180612b8557612b84616de7565b5b827f30644e72e131a029b85045b68181585d2833e84879b9709143e1f593f0000001612bb19190616b50565b8408905092915050565b5f7f30644e72e131a029b85045b68181585d2833e84879b9709143e1f593f0000001825f1c612bea91906171c5565b9050919050565b5f612c0483612bff84612f91565b612adf565b905092915050565b5f5f612c47845f60088110612c2457612c23616b23565b5b602002015185600160088110612c3d57612c3c616b23565b5b6020020151612b1a565b9050612c538184612ef8565b91505092915050565b5f5f6040518061010001604052807f30644e72e131a029b85045b68181585d2833e84879b9709143e1f593efffec5181526020016102d081526020017f30644e72e131a029b85045b68181585d2833e84879b9709143e1f593efffff118152602001609081526020017f30644e72e131a029b85045b68181585d2833e84879b9709143e1f593efffff71815260200160f081526020017f30644e72e131a029b85045b68181585d2833e84879b9709143e1f593effffd3181526020016113b081525090505f600190505f5f90505b6008811015612d5357612d4682612d418784612b55565b612adf565b9150806001019050612d2a565b50612d5c61663f565b5f5f90505b6008811015612dce575f848260088110612d7e57612d7d616b23565b5b60200201519050612d9881612d938985612b55565b612adf565b9050612da381612f91565b905080838360088110612db957612db8616b23565b5b60200201818152505050806001019050612d61565b505f5f90505b6008811015612e33575f878260088110612df157612df0616b23565b5b60200201519050612e1981848460088110612e0f57612e0e616b23565b5b6020020151612adf565b9050612e258682612b1a565b955050806001019050612dd4565b50612e3e8483612adf565b935050505092915050565b5f5f612e696001612e6485612e5f896001612b55565b612adf565b612b1a565b9050612e758482612adf565b9150509392505050565b5f612e88616662565b612e93868285613c7b565b612e9f86868386613eb9565b612eab868683866141b0565b612eb686828561444a565b612ec1868285614714565b612ecd86868386614b43565b612ed88682856157cc565b612ee3868285615c86565b612eed81856160d4565b915050949350505050565b5f818314905092915050565b612f0c61656e565b81815f601c8110612f2057612f1f616b23565b5b6020020181815250505f600190505b601c811015612f8b57612f6482600183612f499190616b50565b601c8110612f5a57612f59616b23565b5b60200201516131e4565b8282601c8110612f7757612f76616b23565b5b602002018181525050806001019050612f2f565b50919050565b5f5f8290505f604051602081526020808201526020604082015282606082015260027f30644e72e131a029b85045b68181585d2833e84879b9709143e1f593f00000010360808201527f30644e72e131a029b85045b68181585d2833e84879b9709143e1f593f000000160a082015260205f60c08360055afa80613013575f5ffd5b5f51925050508092505050919050565b61302b616685565b604051806040016040528060888460200151901b845f015117815260200160888460600151901b8460400151178152509050919050565b5f817f30644e72e131a029b85045b68181585d2833e84879b9709143e1f593f000000161308f9190616b50565b9050919050565b61309e61656e565b5f601c90505b5f8111156131da575f846001836130bb9190616b50565b601c81106130cc576130cb616b23565b5b602002015190505f886001846130e29190616b50565b601c81106130f3576130f2616b23565b5b602002015190505f61316061311261310b858c612adf565b6002612adf565b61315b8a6001886131239190616b50565b601c811061313457613133616b23565b5b60200201516131566131508861314b60018a612b55565b612adf565b87612b55565b612adf565b612b55565b90506131908161318b6131866131808761317b600189612b55565b612adf565b86612b1a565b612f91565b612adf565b90508584116131c65780985080856001866131ab9190616b50565b601c81106131bc576131bb616b23565b5b6020020181815250505b505050806131d3906171f5565b90506130a4565b5095945050505050565b5f6131ef8283612adf565b9050919050565b6131fe616685565b5f6002601c602861320f9190616af0565b6132199190616af0565b90506001604051855151604082015285516020015160608201528451608082015260408160606040840160075afa8216915060015b838110156132aa576020810287016020820287018151516040850152815160200151606085015280516080850152604080850160606040870160075afa8516945060408460808660065afa85169450505060018101905061324e565b81518552602082015160208601525050505092915050565b6132ca616685565b7f30644e72e131a029b85045b68181585d97816a916871ca8d3c208c16d87cfd4782602001517f30644e72e131a029b85045b68181585d97816a916871ca8d3c208c16d87cfd4761331b9190616b50565b61332591906171c5565b826020018181525050819050919050565b5f5f835f015184602001517f198e9393920d483a7260bfb731fb5d25f1aa493335a9e71297e485b7aef312c27f1800deef121f1e76426a00665e5c4479674322d4f75edadd46debd5cd992f6ed7f090689d0585ff075ec9e99ad690c3395bc4b313370b38ef355acdadcd122975b7f12c85ea5db8c6deb4aab71808dcb408fe3d1e7690c43d37b4ce6cc0166fa7daa885f015189602001517f260e01b251f6f1c7e7ff4e580791dee8ea51d87a358e038b4efe30fac09383c17f0118c4d5b837bcc2bc89b5b398b5974e9f5944073b32078b7e231fec938883b07f04fc6369f7110fe3d25156c1bb9a72859cf2a04641f99ba4ee413c80da6a5fe47f22febda3c0c0632a56475b4214e5615e11e6dd3f96e6cea2854a87d4dacc5e5560405160200161346d9c9b9a9998979695949392919061721c565b60405160208183030381529060405290505f5f600873ffffffffffffffffffffffffffffffffffffffff16836040516134a69190617343565b5f60405180830381855afa9150503d805f81146134de576040519150601f19603f3d011682016040523d82523d5f602084013e6134e3565b606091505b50915091505f818060200190518101906134fd9190617383565b90508280156135095750805b94505050505092915050565b5f5f5f5f5f600c8760036135299190616af0565b6135339190616af0565b67ffffffffffffffff81111561354c5761354b6173ae565b5b60405190808252806020026020018201604052801561357a5781602001602082028036833780820191505090505b509050875f1b815f8151811061359357613592616b23565b5b602002602001018181525050865f1b816001815181106135b6576135b5616b23565b5b602002602001018181525050855f1b816002815181106135d9576135d8616b23565b5b6020026020010181815250505f5f90505b87811015613644578a8a8281811061360557613604616b23565b5b905060200201358282600361361a9190616af0565b8151811061362b5761362a616b23565b5b60200260200101818152505080806001019150506135ea565b508a5f01515f01515f1b8188600361365c9190616af0565b8151811061366d5761366c616b23565b5b6020026020010181815250508a5f0151602001515f1b8160018960036136939190616af0565b61369d9190616af0565b815181106136ae576136ad616b23565b5b6020026020010181815250508a5f0151604001515f1b8160028960036136d49190616af0565b6136de9190616af0565b815181106136ef576136ee616b23565b5b6020026020010181815250508a5f0151606001515f1b8160038960036137159190616af0565b61371f9190616af0565b815181106137305761372f616b23565b5b6020026020010181815250508a602001515f01515f1b8160048960036137569190616af0565b6137609190616af0565b8151811061377157613770616b23565b5b6020026020010181815250508a60200151602001515f1b8160058960036137989190616af0565b6137a29190616af0565b815181106137b3576137b2616b23565b5b6020026020010181815250508a60200151604001515f1b8160068960036137da9190616af0565b6137e49190616af0565b815181106137f5576137f4616b23565b5b6020026020010181815250508a60200151606001515f1b81600789600361381c9190616af0565b6138269190616af0565b8151811061383757613836616b23565b5b6020026020010181815250508a604001515f01515f1b81600889600361385d9190616af0565b6138679190616af0565b8151811061387857613877616b23565b5b6020026020010181815250508a60400151602001515f1b81600989600361389f9190616af0565b6138a99190616af0565b815181106138ba576138b9616b23565b5b6020026020010181815250508a60400151604001515f1b81600a8960036138e19190616af0565b6138eb9190616af0565b815181106138fc576138fb616b23565b5b6020026020010181815250508a60400151606001515f1b81600b8960036139239190616af0565b61392d9190616af0565b8151811061393e5761393d616b23565b5b6020026020010181815250506139798160405160200161395e919061748c565b60405160208183030381529060405280519060200120612bbb565b915061398482613c35565b80955081965050506139bb826040516020016139a09190616e64565b60405160208183030381529060405280519060200120612bbb565b91505f6139c783613c35565b809250819550505050509650965096509692505050565b5f5f5f6139e961669d565b6139f286616168565b815f600d8110613a0557613a04616b23565b5b6020020181815250508460a001515f01515f1b816001600d8110613a2c57613a2b616b23565b5b6020020181815250508460a00151602001515f1b816002600d8110613a5457613a53616b23565b5b6020020181815250508460a00151604001515f1b816003600d8110613a7c57613a7b616b23565b5b6020020181815250508460a00151606001515f1b816004600d8110613aa457613aa3616b23565b5b6020020181815250508460c001515f01515f1b816005600d8110613acb57613aca616b23565b5b6020020181815250508460c00151602001515f1b816006600d8110613af357613af2616b23565b5b6020020181815250508460c00151604001515f1b816007600d8110613b1b57613b1a616b23565b5b6020020181815250508460c00151606001515f1b816008600d8110613b4357613b42616b23565b5b60200201818152505084606001515f01515f1b816009600d8110613b6a57613b69616b23565b5b6020020181815250508460600151602001515f1b81600a600d8110613b9257613b91616b23565b5b6020020181815250508460600151604001515f1b81600b600d8110613bba57613bb9616b23565b5b6020020181815250508460600151606001515f1b81600c600d8110613be257613be1616b23565b5b602002018181525050613c1a81604051602001613bff9190617521565b60405160208183030381529060405280519060200120612bbb565b9150613c2582613c35565b8094508195505050509250925092565b5f5f5f8390505f6fffffffffffffffffffffffffffffffff821690505f608083901c9050613c64825f1b612bbb565b9450613c71815f1b612bbb565b9350505050915091565b5f613c87846007616173565b90505f7f183227397098d014dc2822db40c0ac2e9419f4243cdcb848a1f0fac9f800000090505f613cfa613cf4613cbf856003612b55565b613cef613cdf613ccf8b5f616173565b613cda8c601c616173565b612adf565b613cea8b601b616173565b612adf565b612adf565b83612adf565b9050613da8613d98613d75613d52613d2f85613d2a613d1a8d6002616173565b613d258e601b616173565b612adf565b612b1a565b613d4d613d3d8c6003616173565b613d488d601c616173565b612adf565b612b1a565b613d70613d608b6004616173565b613d6b8c601d616173565b612adf565b612b1a565b613d93613d838a6005616173565b613d8e8b601e616173565b612adf565b612b1a565b613da3886001616173565b612b1a565b9050613dd181613dcc613dbc866001612b55565b613dc78a6026616173565b612adf565b612b1a565b9050613ddd8184612adf565b9050613de98185612adf565b905080855f601a8110613dff57613dfe616b23565b5b60200201818152505050505f613e4e613e3f613e2f613e1f88601b616173565b613e2a89601e616173565b612b1a565b613e3a886023616173565b612b55565b613e49875f616173565b612b1a565b9050613e6481613e5f846002612b55565b612adf565b9050613e7a81613e75846001612b55565b612adf565b9050613e868183612adf565b9050613e928184612adf565b905080846001601a8110613ea957613ea8616b23565b5b6020020181815250505050505050565b5f5f5f613ef4613eea613ecd89601b616173565b613ee5613edb8b6011616173565b8a60600151612adf565b612b1a565b8760800151612b1a565b9050613f3781613f32613f28613f0b8b601c616173565b613f23613f198d6012616173565b8c60600151612adf565b612b1a565b8960800151612b1a565b612adf565b9050613f7a81613f75613f6b613f4e8b601d616173565b613f66613f5c8d6013616173565b8c60600151612adf565b612b1a565b8960800151612b1a565b612adf565b9050613fbd81613fb8613fae613f918b601e616173565b613fa9613f9f8d6014616173565b8c60600151612adf565b612b1a565b8960800151612b1a565b612adf565b9050809250505f613ffc613ff2613fd589601b616173565b613fed613fe38b600d616173565b8a60600151612adf565b612b1a565b8760800151612b1a565b905061403f8161403a6140306140138b601c616173565b61402b6140218d600e616173565b8c60600151612adf565b612b1a565b8960800151612b1a565b612adf565b90506140828161407d6140736140568b601d616173565b61406e6140648d600f616173565b8c60600151612adf565b612b1a565b8960800151612b1a565b612adf565b90506140c5816140c06140b66140998b601e616173565b6140b16140a78d6010616173565b8c60600151612adf565b612b1a565b8960800151612b1a565b612adf565b9050809150505f6140f36140ed6140dd89601f616173565b6140e88a6019616173565b612b1a565b84612adf565b90506141328161412d61412761410a8b6027616173565b6141226141188d601a616173565b8c60a00151612adf565b612b1a565b85612adf565b612b55565b905061413e8185612adf565b905080856002601a811061415557614154616b23565b5b602002018181525050505f61418761418161417189601a616173565b61417c8a6027616173565b612adf565b85612adf565b905080856003601a811061419e5761419d616b23565b5b60200201818152505050505050505050565b5f5f61422961420c6141ef6141d36141c98a6015616173565b8960800151612b1a565b6141ea6141e18b6016616173565b8a5f0151612adf565b612b1a565b6142076141fd8a6017616173565b8960200151612adf565b612b1a565b61422461421a896018616173565b8860400151612adf565b612b1a565b91505f61426a61424761423d89601b616173565b8860800151612b1a565b6142656142558a6003616173565b6142608b6023616173565b612adf565b612b1a565b90505f61429d61427b89601c616173565b6142986142888b5f616173565b6142938c6024616173565b612adf565b612b1a565b90505f6142d16142ae8a601d616173565b6142cc6142bc8c6001616173565b6142c78d6025616173565b612adf565b612b1a565b905061431f6143026142ef856142ea868d5f0151612adf565b612b1a565b6142fd848c60200151612adf565b612b1a565b61431a6143108c6004616173565b8b60400151612adf565b612b1a565b93505050505f614339614333886020616173565b84612adf565b90505f61435061434a896020616173565b84612adf565b90505f6143976143746143648b6022616173565b61436f8c6006616173565b612b1a565b6143926143828c6022616173565b61438d8d6006616173565b612adf565b612b55565b90505f6143c06143ba6143aa8789612adf565b6143b58d6020616173565b612adf565b83612b55565b90506143cc8188612adf565b90505f6143ff6143e66143e08d6006616173565b87612adf565b6143fa6143f48e6021616173565b87612adf565b612b55565b905081896004601a811061441657614415616b23565b5b60200201818152505080896005601a811061443457614433616b23565b5b6020020181815250505050505050505050505050565b5f6144565f6001612b55565b90505f6144645f6002612b55565b90505f6144725f6003612b55565b90505f61449361448388601c616173565b61448e89601b616173565b612b55565b90505f6144b46144a489601d616173565b6144af8a601c616173565b612b55565b90505f6144d56144c58a601e616173565b6144d08b601d616173565b612b55565b90505f6144f66144e68b6023616173565b6144f18c601e616173565b612b55565b90505f84905061450f8161450a878b612b1a565b612adf565b90506145248161451f878a612b1a565b612adf565b9050614539816145348789612b1a565b612adf565b905061454f8161454a8d6008616173565b612adf565b905061455b818a612adf565b9050808a6006601a811061457257614571616b23565b5b602002018181525050505f8390506145938161458e868b612b1a565b612adf565b90506145a8816145a3868a612b1a565b612adf565b90506145bd816145b88689612b1a565b612adf565b90506145d3816145ce8d6008616173565b612adf565b90506145df818a612adf565b9050808a6007601a81106145f6576145f5616b23565b5b602002018181525050505f82905061461781614612858b612b1a565b612adf565b905061462c81614627858a612b1a565b612adf565b90506146418161463c8589612b1a565b612adf565b9050614657816146528d6008616173565b612adf565b9050614663818a612adf565b9050808a6008601a811061467a57614679616b23565b5b602002018181525050505f81905061469b81614696848b612b1a565b612adf565b90506146b0816146ab848a612b1a565b612adf565b90506146c5816146c08489612b1a565b612adf565b90506146db816146d68d6008616173565b612adf565b90506146e7818a612adf565b9050808a6009601a81106146fe576146fd616b23565b5b6020020181815250505050505050505050505050565b61471c6166c0565b61472784601c616173565b815f01818152505061473a84601d616173565b81602001818152505061474e846023616173565b816040018181525050614762846026616173565b816060018181525050614776846025616173565b81608001818152505061478a846024616173565b8160a00181815250505f61479f856002616173565b90505f6147ac865f616173565b90505f6147c08460400151855f0151612b55565b90505f6147d585602001518660200151612adf565b90505f8690505f6147ee87606001518860600151612adf565b90505f61480c61480689602001518a60600151612adf565b88612adf565b90505f61482d6148248a60a001518b60400151612b1a565b8a5f0151612b1a565b905061484261483c8288612adf565b87612adf565b905061486961486361485d6148578487612b55565b88612b55565b84612b1a565b83612b1a565b905061489b61488b61487b8387612adf565b6148868f6009616173565b612adf565b61489660018a612b55565b612adf565b8b600a601a81106148af576148ae616b23565b5b602002018181525050505050505f6148cf86602001518760800151612b1a565b90505f6148ed6148e3886060015188612adf565b8860200151612b55565b90505f61491c6148fd8487612adf565b6149176149118b60a001518c5f0151612b55565b85612adf565b612b1a565b905061494e61493e61492e838c612adf565b6149398e6009616173565b612adf565b614949600189612b55565b612adf565b8a600b601a811061496257614961616b23565b5b6020020181815250505050505f61498661497d836011612b1a565b875f0151612adf565b90505f6149938384612b1a565b905061499f8182612b1a565b90505f6149ad836009612adf565b90506149de6149d86149d26149c98b60a001518c5f0151612b1a565b8b5f0151612b1a565b84612adf565b82612b55565b8860c00181815250505f614a12614a0c6149fc8b60c001518d612adf565b614a078f6009616173565b612adf565b88612adf565b9050614a368b600a601a8110614a2b57614a2a616b23565b5b602002015182612b1a565b8b600a601a8110614a4a57614a49616b23565b5b602002018181525050505050505f614a80614a77614a6e885f0151895f0151612b1a565b885f0151612b1a565b875f0151612adf565b90505f614ad1614aa083614a9b8a5f01518b60a00151612b55565b612adf565b614acc614ab58a602001518b60200151612b1a565b614ac78b602001518c60800151612b1a565b612adf565b612b55565b9050614b1a89600b601a8110614aea57614ae9616b23565b5b6020020151614b15614b0f614aff858d612adf565b614b0a8f6009616173565b612adf565b88612adf565b612b1a565b89600b601a8110614b2e57614b2d616b23565b5b60200201818152505050505050505050505050565b614b4b6166f6565b614b8f614b6c614b5c87601b616173565b614b67886024616173565b612adf565b614b8a614b7a886023616173565b614b8589601c616173565b612adf565b612b1a565b815f018181525050614bee614bde614bbb614bab88601b616173565b614bb689601e616173565b612adf565b614bd9614bc989601c616173565b614bd48a601d616173565b612adf565b612b1a565b614be9876025616173565b612b55565b816040018181525050614c0a816040015160446001901b612adf565b816040018181525050614c2b8160400151614c26876026616173565b612b55565b816040018181525050614c458160400151825f0151612b1a565b816040018181525050614c668160400151614c61876005616173565b612adf565b816040018181525050614c81815f015160446001901b612adf565b815f018181525050614cb3815f0151614cae614c9e886023616173565b614ca9896024616173565b612adf565b612b1a565b815f018181525050805f0151816020018181525050614cf38160200151614cee614cde88601d616173565b614ce989601e616173565b612b1a565b612b55565b816020018181525050614d148160200151614d0f876004616173565b612adf565b816020018181525050805f0151816060018181525050614d428160600151614d3d87601e616173565b612b1a565b816060018181525050614d768160600151614d71614d61886025616173565b614d6c896026616173565b612b1a565b612b55565b816060018181525050614d968160600151614d91875f616173565b612adf565b8160600181815250505f614dbf614db583602001518460400151612b1a565b8360600151612b1a565b9050614dd581614dd0886003616173565b612adf565b9050614df0614de5876024616173565b600e6001901b612adf565b826080018181525050614e118260800151614e0c886023616173565b612b1a565b826080018181525050614e2d8260800151600e6001901b612adf565b826080018181525050614e4e8260800151614e4988601d616173565b612b1a565b826080018181525050614e6a8260800151600e6001901b612adf565b826080018181525050614e8b8260800151614e8688601c616173565b612b1a565b826080018181525050614ea78260800151600e6001901b612adf565b826080018181525050614ec88260800151614ec388601b616173565b612b1a565b826080018181525050614ee98260800151614ee488601e616173565b612b55565b826080018181525050614f0a8260800151614f05886005616173565b612adf565b826080018181525050614f2c614f21876025616173565b600e6001901b612adf565b8260a0018181525050614f4d8260a00151614f48886024616173565b612b1a565b8260a0018181525050614f698260a00151600e6001901b612adf565b8260a0018181525050614f8a8260a00151614f85886023616173565b612b1a565b8260a0018181525050614fa68260a00151600e6001901b612adf565b8260a0018181525050614fc78260a00151614fc288601e616173565b612b1a565b8260a0018181525050614fe38260a00151600e6001901b612adf565b8260a00181815250506150048260a00151614fff88601d616173565b612b1a565b8260a00181815250506150258260a00151615020886026616173565b612b55565b8260a00181815250506150458260a00151615040885f616173565b612adf565b8260a00181815250505f61506183608001518460a00151612b1a565b905061507781615072896004616173565b612adf565b905061509161508788601d616173565b8760400151612adf565b8360c00181815250506150bf8360c001516150ba6150b08a601c616173565b8960200151612adf565b612b1a565b8360c00181815250506150ec8360c001516150e76150de8a601b616173565b895f0151612adf565b612b1a565b8360c001818152505061510d8360c00151615108896001616173565b612b1a565b8360c00181815250508260c001518360e001818152505061513c8360c0015161513789601e616173565b612b55565b8360c0018181525050615163615153886023616173565b61515e89601b616173565b612b55565b8361014001818152505061518b61517b886026616173565b61518689601e616173565b612b55565b836101200181815250506151b76151ac846101400151856101400151612adf565b846101400151612b55565b8361028001818152505061521461520961520285610140015160017f30644e72e131a029b85045b68181585d2833e84879b9709143e1f593f00000016151fd9190616b50565b612adf565b6001612b1a565b846101200151612adf565b8361016001818152505061526661524d8461016001516152486152388b6002616173565b6152438c6003616173565b612adf565b612adf565b61526161525b8a600a616173565b87612adf565b612adf565b85600d601a811061527a57615279616b23565b5b6020020181815250506152cb6152b28461028001516152ad61529d8b6002616173565b6152a88c6003616173565b612adf565b612adf565b6152c66152c08a600a616173565b87612adf565b612adf565b85600e601a81106152df576152de616b23565b5b6020020181815250506153138360c0015161530e6152fe8a6002616173565b6153098b6003616173565b612adf565b612adf565b836101e00181815250505f61533661532c89601e616173565b8560e00151612b55565b905061534b6153458283612adf565b82612b55565b846101a001818152505061536d615363896025616173565b8860400151612adf565b8461010001818152505061539d84610100015161539861538e8b6024616173565b8a60200151612adf565b612b1a565b846101000181815250506153cc8461010001516153c76153be8b6023616173565b8a5f0151612adf565b612b1a565b846101000181815250506153ef6153e4896026616173565b856101000151612b55565b846101000181815250505f6154186154088a6025616173565b6154138b601d616173565b612b55565b90506154b561546b61546561545e88610140015160017f30644e72e131a029b85045b68181585d2833e84879b9709143e1f593f00000016154599190616b50565b612adf565b6001612b1a565b83612adf565b6154b06154a988610100015160017f30644e72e131a029b85045b68181585d2833e84879b9709143e1f593f00000016154a49190616b50565b612adf565b6001612b1a565b612adf565b856101800181815250506154e16154d6866101000151876101000151612adf565b866101000151612b55565b856101c00181815250506155206155078661018001516155028c6007616173565b612adf565b61551b6155158c600a616173565b89612adf565b612adf565b87600f601a811061553457615533616b23565b5b6020020181815250506155726155598661028001516155548c6007616173565b612adf565b61556d6155678c600a616173565b89612adf565b612adf565b876010601a811061558657615585616b23565b5b6020020181815250506155c46155ab866101c001516155a68c6007616173565b612adf565b6155bf6155b98c600a616173565b89612adf565b612adf565b876011601a81106155d8576155d7616b23565b5b6020020181815250506155fa856101a001516155f58b6007616173565b612adf565b856102000181815250506156226156128a6024616173565b61561d8b601c616173565b612b55565b8561022001818152505061569261568261567761567088610140015160017f30644e72e131a029b85045b68181585d2833e84879b9709143e1f593f000000161566b9190616b50565b612adf565b6001612b1a565b876102200151612adf565b61568d8b601d616173565b612b55565b85610240018181525050846101e00151856102600181815250506156e68561026001516156e18761024001516156dc6156cc8e6005616173565b6156d78f6002616173565b612adf565b612adf565b612b1a565b856102600181815250506157288561026001516157238760c0015161571e61570e8e5f616173565b6157198f6002616173565b612adf565b612adf565b612b1a565b85610260018181525050615746856102600151866102000151612b1a565b8561026001818152505061576861576286610260015186612b1a565b84612b1a565b856102a0018181525050615794856102a0015161578f6157898c600a616173565b89612adf565b612adf565b856102a0018181525050846102a0015187600c601a81106157b8576157b7616b23565b5b602002018181525050505050505050505050565b6157d4616787565b6157f26157e285601b616173565b6157ed866002616173565b612b1a565b815f01818152505061581861580885601c616173565b615813866003616173565b612b1a565b81602001818152505061583f61582f85601d616173565b61583a866004616173565b612b1a565b81604001818152505061586661585685601e616173565b615861866005616173565b612b1a565b8160600181815250506158a361589a615891615888845f0151855f0151612adf565b845f0151612adf565b835f0151612adf565b825f0151612adf565b8160800181815250506158e56158db6158d16158c784602001518560200151612adf565b8460200151612adf565b8360200151612adf565b8260200151612adf565b8160a001818152505061592761591d61591361590984604001518560400151612adf565b8460400151612adf565b8360400151612adf565b8260400151612adf565b8160c001818152505061596961595f61595561594b84606001518560600151612adf565b8460600151612adf565b8360600151612adf565b8260600151612adf565b8160e001818152505061598481608001518260a00151612b1a565b816101000181815250506159a08160c001518260e00151612b1a565b816101200181815250506159ca6159bf8260a001518360a00151612b1a565b826101200151612b1a565b816101400181815250506159f46159e98260e001518360e00151612b1a565b826101000151612b1a565b81610160018181525050615a12816101200151826101200151612b1a565b816101e0018181525050615a3e615a33826101e00151836101e00151612b1a565b826101600151612b1a565b816101e0018181525050615a5c816101000151826101000151612b1a565b816101a0018181525050615a88615a7d826101a00151836101a00151612b1a565b826101400151612b1a565b816101a0018181525050615aa6816101600151826101a00151612b1a565b81610180018181525050615ac4816101400151826101e00151612b1a565b816101c0018181525050615ae2615adc85600b616173565b83612adf565b81610200018181525050615b34836012601a8110615b0357615b02616b23565b5b6020020151615b2f836102000151615b2a856101800151615b258a6023616173565b612b55565b612adf565b612b1a565b836012601a8110615b4857615b47616b23565b5b602002018181525050615b99836013601a8110615b6857615b67616b23565b5b6020020151615b94836102000151615b8f856101a00151615b8a8a6024616173565b612b55565b612adf565b612b1a565b836013601a8110615bad57615bac616b23565b5b602002018181525050615bfe836014601a8110615bcd57615bcc616b23565b5b6020020151615bf9836102000151615bf4856101c00151615bef8a6025616173565b612b55565b612adf565b612b1a565b836014601a8110615c1257615c11616b23565b5b602002018181525050615c63836015601a8110615c3257615c31616b23565b5b6020020151615c5e836102000151615c59856101e00151615c548a6026616173565b612b55565b612adf565b612b1a565b836015601a8110615c7757615c76616b23565b5b60200201818152505050505050565b615c8e6167fa565b5f6040518060800160405280615cc37f10dc6e9c006ea38b04b1e03b4bd9490c0d03f98929ca1d7fb56821fd19d3b6e7612aab565b8152602001615cf17f0c28145b6a44df3e0149b3d0a30b3bb599df9756d4dd9b84a86b38cfb45a740b612aab565b8152602001615d1e7e544b8338791518b2c7645a50392798b21f75bb60e3596170067d00141cac15612aab565b8152602001615d4c7f222c01175718386f2e2e82eb122789e352e105a3b8fa852613bc534433ee428b612aab565b8152509050615d6f615d5f86601b616173565b615d6a876002616173565b612b1a565b82610120018181525050615db7615dac615da1615d96856101200151866101200151612adf565b856101200151612adf565b846101200151612adf565b836101200151612adf565b825f018181525050615dca85601c616173565b826020018181525050615dde85601d616173565b826040018181525050615df285601e616173565b826060018181525050615e26615e1c615e12845f01518560200151612b1a565b8460400151612b1a565b8360600151612b1a565b826080018181525050615e43615e3d86600c616173565b84612adf565b82610140018181525050615e7e615e74835f0151835f60048110615e6a57615e69616b23565b5b6020020151612adf565b8360800151612b1a565b8260a0018181525050615ece846016601a8110615e9e57615e9d616b23565b5b6020020151615ec9846101400151615ec48660a00151615ebf8b6023616173565b612b55565b612adf565b612b1a565b846016601a8110615ee257615ee1616b23565b5b602002018181525050615f1e615f14836020015183600160048110615f0a57615f09616b23565b5b6020020151612adf565b8360800151612b1a565b8260c0018181525050615f6e846017601a8110615f3e57615f3d616b23565b5b6020020151615f69846101400151615f648660c00151615f5f8b6024616173565b612b55565b612adf565b612b1a565b846017601a8110615f8257615f81616b23565b5b602002018181525050615fbe615fb4836040015183600260048110615faa57615fa9616b23565b5b6020020151612adf565b8360800151612b1a565b8260e001818152505061600e846018601a8110615fde57615fdd616b23565b5b60200201516160098461014001516160048660e00151615fff8b6025616173565b612b55565b612adf565b612b1a565b846018601a811061602257616021616b23565b5b60200201818152505061605e61605483606001518360036004811061604a57616049616b23565b5b6020020151612adf565b8360800151612b1a565b826101000181815250506160b0846019601a811061607f5761607e616b23565b5b60200201516160ab8461014001516160a68661010001516160a18b6026616173565b612b55565b612adf565b612b1a565b846019601a81106160c4576160c3616b23565b5b6020020181815250505050505050565b5f6160f681845f601a81106160ec576160eb616b23565b5b6020020151612b1a565b90505f600190505b601a811015616161576161548261614f8684601a811061612157616120616b23565b5b6020020151866001866161349190616b50565b6019811061614557616144616b23565b5b6020020151612adf565b612b1a565b91508060010190506160fe565b5092915050565b5f815f1b9050919050565b5f828260278111156161885761618761753c565b5b6028811061619957616198616b23565b5b6020020151905092915050565b604051806103c001604052805f81526020015f81526020015f81526020016161cc616685565b81526020016161d9616685565b81526020016161e6616685565b81526020016161f3616685565b8152602001616200616685565b815260200161620d616685565b815260200161621a616685565b8152602001616227616685565b8152602001616234616685565b8152602001616241616685565b815260200161624e616685565b815260200161625b616685565b8152602001616268616685565b8152602001616275616685565b8152602001616282616685565b815260200161628f616685565b815260200161629c616685565b81526020016162a9616685565b81526020016162b6616685565b81526020016162c3616685565b81526020016162d0616685565b81526020016162dd616685565b81526020016162ea616685565b81526020016162f7616685565b8152602001616304616685565b8152602001616311616685565b815260200161631e616685565b81525090565b604051806101c001604052806163386164d4565b81526020016163456164d4565b81526020016163526164d4565b815260200161635f6164d4565b815260200161636c6164d4565b81526020016163796164d4565b81526020016163866164d4565b81526020016163936164d4565b81526020016163a0616849565b81526020016163ad616877565b81526020016163ba61689a565b81526020016163c761656e565b81526020016163d46164d4565b81526020016163e16164d4565b81525090565b6040518061010001604052806163fb6164f8565b8152602001616408616528565b815260200161641561656e565b815260200161642261656e565b81526020015f81526020015f81526020015f81526020015f81525090565b6040518061012001604052805f81526020015f81526020015f81526020015f81526020015f81526020015f81526020015f81526020015f81526020015f81525090565b604051806108c00160405280604690602082028036833780820191505090505090565b604051806108c001604052806046905b6164be616685565b8152602001906001900390816164b65790505090565b60405180608001604052805f81526020015f81526020015f81526020015f81525090565b6040518060c001604052805f81526020015f81526020015f81526020015f81526020015f81526020015f81525090565b604051806103200160405280601990602082028036833780820191505090505090565b604051806101200160405280600990602082028036833780820191505090505090565b604051806103800160405280601c90602082028036833780820191505090505090565b604051806101200160405280600990602082028036833780820191505090505090565b604051806105200160405280602990602082028036833780820191505090505090565b60405180610da00160405280606d90602082028036833780820191505090505090565b604051806103a00160405280601d90602082028036833780820191505090505090565b6040518060a00160405280600590602082028036833780820191505090505090565b604051806101000160405280600890602082028036833780820191505090505090565b604051806103400160405280601a90602082028036833780820191505090505090565b60405180604001604052805f81526020015f81525090565b604051806101a00160405280600d90602082028036833780820191505090505090565b6040518060e001604052805f81526020015f81526020015f81526020015f81526020015f81526020015f81526020015f81525090565b604051806102c001604052805f81526020015f81526020015f81526020015f81526020015f81526020015f81526020015f81526020015f81526020015f81526020015f81526020015f81526020015f81526020015f81526020015f81526020015f81526020015f81526020015f81526020015f81526020015f81526020015f81526020015f81526020015f81525090565b6040518061022001604052805f81526020015f81526020015f81526020015f81526020015f81526020015f81526020015f81526020015f81526020015f81526020015f81526020015f81526020015f81526020015f81526020015f81526020015f81526020015f81526020015f81525090565b6040518061016001604052805f81526020015f81526020015f81526020015f81526020015f81526020015f81526020015f81526020015f81526020015f81526020015f81526020015f81525090565b604051806103800160405280601c905b61686161663f565b8152602001906001900390816168595790505090565b604051806105000160405280602890602082028036833780820191505090505090565b604051806103600160405280601b905b6168b26164d4565b8152602001906001900390816168aa5790505090565b5f5ffd5b5f5ffd5b5f5ffd5b5f5ffd5b5f5ffd5b5f5f83601f8401126168f1576168f06168d0565b5b8235905067ffffffffffffffff81111561690e5761690d6168d4565b5b60208301915083600182028301111561692a576169296168d8565b5b9250929050565b5f5f83601f840112616946576169456168d0565b5b8235905067ffffffffffffffff811115616963576169626168d4565b5b60208301915083602082028301111561697f5761697e6168d8565b5b9250929050565b5f5f5f5f6040858703121561699e5761699d6168c8565b5b5f85013567ffffffffffffffff8111156169bb576169ba6168cc565b5b6169c7878288016168dc565b9450945050602085013567ffffffffffffffff8111156169ea576169e96168cc565b5b6169f687828801616931565b925092505092959194509250565b5f8115159050919050565b616a1881616a04565b82525050565b5f602082019050616a315f830184616a0f565b92915050565b5f819050919050565b7f4e487b71000000000000000000000000000000000000000000000000000000005f52601160045260245ffd5b5f616a7782616a37565b9150616a8283616a37565b9250828202616a9081616a37565b91508282048414831517616aa757616aa6616a40565b5b5092915050565b5f5ffd5b5f5ffd5b5f5f85851115616ac957616ac8616aae565b5b83861115616ada57616ad9616ab2565b5b6001850283019150848603905094509492505050565b5f616afa82616a37565b9150616b0583616a37565b9250828201905080821115616b1d57616b1c616a40565b5b92915050565b7f4e487b71000000000000000000000000000000000000000000000000000000005f52603260045260245ffd5b5f616b5a82616a37565b9150616b6583616a37565b9250828203905081811115616b7d57616b7c616a40565b5b92915050565b5f616b8d82616a37565b91507fffffffffffffffffffffffffffffffffffffffffffffffffffffffffffffffff8203616bbf57616bbe616a40565b5b600182019050919050565b5f82825260208201905092915050565b7f696e76616c696420627974657320706f696e74000000000000000000000000005f82015250565b5f616c0e601383616bca565b9150616c1982616bda565b602082019050919050565b5f6020820190508181035f830152616c3b81616c02565b9050919050565b5f82905092915050565b5f819050919050565b5f82821b905092915050565b5f616c6c8383616c42565b82616c778135616c4c565b92506020821015616cb757616cb27fffffffffffffffffffffffffffffffffffffffffffffffffffffffffffffffff83602003600802616c55565b831692505b505092915050565b7f696e76616c6964206279746573207363616c61720000000000000000000000005f82015250565b5f616cf3601483616bca565b9150616cfe82616cbf565b602082019050919050565b5f6020820190508181035f830152616d2081616ce7565b9050919050565b5f60099050919050565b5f81905092915050565b5f819050919050565b616d4d81616a37565b82525050565b5f616d5e8383616d44565b60208301905092915050565b5f602082019050919050565b616d7f81616d27565b616d898184616d31565b9250616d9482616d3b565b805f5b83811015616dc4578151616dab8782616d53565b9650616db683616d6a565b925050600181019050616d97565b505050505050565b5f616dd78284616d76565b6101208201915081905092915050565b7f4e487b71000000000000000000000000000000000000000000000000000000005f52601260045260245ffd5b5f616e1e82616a37565b9150616e2983616a37565b925082616e3957616e38616de7565b5b828204905092915050565b5f819050919050565b616e5e616e5982616a37565b616e44565b82525050565b5f616e6f8284616e4d565b60208201915081905092915050565b5f60099050919050565b5f819050919050565b5f819050919050565b5f616eb4616eaf616eaa84616a37565b616e91565b616a37565b9050919050565b616ec481616e9a565b82525050565b5f616ed58383616ebb565b60208301905092915050565b5f602082019050919050565b616ef681616e7e565b616f008184616d31565b9250616f0b82616e88565b805f5b83811015616f3b578151616f228782616eca565b9650616f2d83616ee1565b925050600181019050616f0e565b505050505050565b5f616f4e8284616eed565b6101208201915081905092915050565b5f60299050919050565b5f81905092915050565b5f819050919050565b5f602082019050919050565b616f9081616f5e565b616f9a8184616f68565b9250616fa582616f72565b805f5b83811015616fd5578151616fbc8782616eca565b9650616fc783616f7b565b925050600181019050616fa8565b505050505050565b5f616fe88284616f87565b6105208201915081905092915050565b5f606d9050919050565b5f81905092915050565b5f819050919050565b5f602082019050919050565b61702a81616ff8565b6170348184617002565b925061703f8261700c565b805f5b8381101561706f5781516170568782616d53565b965061706183617015565b925050600181019050617042565b505050505050565b5f6170828284617021565b610da08201915081905092915050565b5f601d9050919050565b5f81905092915050565b5f819050919050565b5f602082019050919050565b6170c481617092565b6170ce818461709c565b92506170d9826170a6565b805f5b838110156171095781516170f08782616d53565b96506170fb836170af565b9250506001810190506170dc565b505050505050565b5f61711c82846170bb565b6103a08201915081905092915050565b5f60059050919050565b5f81905092915050565b5f819050919050565b5f602082019050919050565b61715e8161712c565b6171688184617136565b925061717382617140565b805f5b838110156171a357815161718a8782616d53565b965061719583617149565b925050600181019050617176565b505050505050565b5f6171b68284617155565b60a08201915081905092915050565b5f6171cf82616a37565b91506171da83616a37565b9250826171ea576171e9616de7565b5b828206905092915050565b5f6171ff82616a37565b91505f820361721157617210616a40565b5b600182039050919050565b5f617227828f616e4d565b602082019150617237828e616e4d565b602082019150617247828d616e4d565b602082019150617257828c616e4d565b602082019150617267828b616e4d565b602082019150617277828a616e4d565b6020820191506172878289616e4d565b6020820191506172978288616e4d565b6020820191506172a78287616e4d565b6020820191506172b78286616e4d565b6020820191506172c78285616e4d565b6020820191506172d78284616e4d565b6020820191508190509d9c50505050505050505050505050565b5f81519050919050565b5f81905092915050565b8281835e5f83830152505050565b5f61731d826172f1565b61732781856172fb565b9350617337818560208601617305565b80840191505092915050565b5f61734e8284617313565b915081905092915050565b61736281616a04565b811461736c575f5ffd5b50565b5f8151905061737d81617359565b92915050565b5f60208284031215617398576173976168c8565b5b5f6173a58482850161736f565b91505092915050565b7f4e487b71000000000000000000000000000000000000000000000000000000005f52604160045260245ffd5b5f81519050919050565b5f81905092915050565b5f819050602082019050919050565b61740781616c4c565b82525050565b5f61741883836173fe565b60208301905092915050565b5f602082019050919050565b5f61743a826173db565b61744481856173e5565b935061744f836173ef565b805f5b8381101561747f578151617466888261740d565b975061747183617424565b925050600181019050617452565b5085935050505092915050565b5f6174978284617430565b915081905092915050565b5f600d9050919050565b5f81905092915050565b5f819050919050565b5f602082019050919050565b6174d4816174a2565b6174de81846174ac565b92506174e9826174b6565b805f5b83811015617519578151617500878261740d565b965061750b836174bf565b9250506001810190506174ec565b505050505050565b5f61752c82846174cb565b6101a08201915081905092915050565b7f4e487b71000000000000000000000000000000000000000000000000000000005f52602160045260245ffdfea2646970667358221220ee325d09793edb93907384a50fe9aa522f6c72ddfe0a8b97548c0b494a02e54864736f6c634300081c0033","linkReferences":{}},"methodIdentifiers":{"verify(bytes,bytes32[])":"ea50d0e4"},"id":26}