{"abi":[{"type":"constructor","inputs":[{"name":"_verifier","type":"address","internalType":"contract IVerifier"},{"name":"_hasher","type":"address","internalType":"contract Poseidon2"},{"name":"_merkleTreeDepth","type":"uint32","internalType":"uint32"},{"name":"_denomination","type":"uint256","internalType":"uint256"}],"stateMutability":"nonpayable"},{"type":"function","name":"DENOMINATION","inputs":[],"outputs":[{"name":"","type":"uint256","internalType":"uint256"}],"stateMutability":"view"},{"type":"function","name":"FIELD_SIZE","inputs":[],"outputs":[{"name":"","type":"uint256","internalType":"uint256"}],"stateMutability":"view"},{"type":"function","name":"ROOT_HISTORY_SIZE","inputs":[],"outputs":[{"name":"","type":"uint32","internalType":"uint32"}],"stateMutability":"view"},{"type":"function","name":"ZERO_ELEMENT","inputs":[],"outputs":[{"name":"","type":"bytes32","internalType":"bytes32"}],"stateMutability":"view"},{"type":"function","name":"deposit","inputs":[{"name":"_commitment","type":"bytes32","internalType":"bytes32"}],"outputs":[],"stateMutability":"payable"},{"type":"function","name":"getLatestRoot","inputs":[],"outputs":[{"name":"","type":"bytes32","internalType":"bytes32"}],"stateMutability":"view"},{"type":"function","name":"hashLeftRight","inputs":[{"name":"_left","type":"bytes32","internalType":"bytes32"},{"name":"_right","type":"bytes32","internalType":"bytes32"}],"outputs":[{"name":"","type":"bytes32","internalType":"bytes32"}],"stateMutability":"view"},{"type":"function","name":"i_depth","inputs":[],"outputs":[{"name":"","type":"uint32","internalType":"uint32"}],"stateMutability":"view"},{"type":"function","name":"i_hasher","inputs":[],"outputs":[{"name":"","type":"address","internalType":"contract Poseidon2"}],"stateMutability":"view"},{"type":"function","name":"i_verifier","inputs":[],"outputs":[{"name":"","type":"address","internalType":"contract IVerifier"}],"stateMutability":"view"},{"type":"function","name":"isKnownRoot","inputs":[{"name":"_root","type":"bytes32","internalType":"bytes32"}],"outputs":[{"name":"","type":"bool","internalType":"bool"}],"stateMutability":"view"},{"type":"function","name":"s_cachedSubtrees","inputs":[{"name":"","type":"uint256","internalType":"uint256"}],"outputs":[{"name":"","type":"bytes32","internalType":"bytes32"}],"stateMutability":"view"},{"type":"function","name":"s_commitments","inputs":[{"name":"","type":"bytes32","internalType":"bytes32"}],"outputs":[{"name":"","type":"bool","internalType":"bool"}],"stateMutability":"view"},{"type":"function","name":"s_currentRootIndex","inputs":[],"outputs":[{"name":"","type":"uint32","internalType":"uint32"}],"stateMutability":"view"},{"type":"function","name":"s_nextLeafIndex","inputs":[],"outputs":[{"name":"","type":"uint32","internalType":"uint32"}],"stateMutability":"view"},{"type":"function","name":"s_nullifierHashes","inputs":[{"name":"","type":"bytes32","internalType":"bytes32"}],"outputs":[{"name":"","type":"bool","internalType":"bool"}],"stateMutability":"view"},{"type":"function","name":"s_roots","inputs":[{"name":"","type":"uint256","internalType":"uint256"}],"outputs":[{"name":"","type":"bytes32","internalType":"bytes32"}],"stateMutability":"view"},{"type":"function","name":"withdraw","inputs":[{"name":"_proof","type":"bytes","internalType":"bytes"},{"name":"_root","type":"bytes32","internalType":"bytes32"},{"name":"_nullifierHash","type":"bytes32","internalType":"bytes32"},{"name":"_recipient","type":"address","internalType":"address payable"},{"name":"_relayer","type":"address","internalType":"address payable"},{"name":"_fee","type":"uint256","internalType":"uint256"},{"name":"_refund","type":"uint256","internalType":"uint256"},{"name":"_deadline","type":"uint256","internalType":"uint256"}],"outputs":[],"stateMutability":"nonpayable"},{"type":"function","name":"zeros","inputs":[{"name":"i","type":"uint256","internalType":"uint256"}],"outputs":[{"name":"","type":"bytes32","internalType":"bytes32"}],"stateMutability":"pure"},{"type":"event","name":"Deposit","inputs":[{"name":"commitment","type":"bytes32","indexed":true,"internalType":"bytes32"},{"name":"leafIndex","type":"uint32","indexed":false,"internalType":"uint32"},{"name":"timestamp","type":"uint256","indexed":false,"internalType":"uint256"}],"anonymous":false},{"type":"event","name":"Withdrawal","inputs":[{"name":"to","type":"address","indexed":false,"internalType":"address"},{"name":"relayer","type":"address","indexed":false,"internalType":"address"},{"name":"nullifierHash","type":"bytes32","indexed":false,"internalType":"bytes32"},{"name":"fee","type":"uint256","indexed":false,"internalType":"uint256"}],"anonymous":false},{"type":"error","name":"IncrementalMerkleTree__IndexOutOfBounds","inputs":[{"name":"index","type":"uint256","internalType":"uint256"}]},{"type":"error","name":"IncrementalMerkleTree__LeftValueOutOfRange","inputs":[{"name":"left","type":"bytes32","internalType":"bytes32"}]},{"type":"error","name":"IncrementalMerkleTree__LevelsShouldBeGreaterThanZero","inputs":[{"name":"depth","type":"uint32","internalType":"uint32"}]},{"type":"error","name":"IncrementalMerkleTree__LevelsShouldBeLessThan32","inputs":[{"name":"depth","type":"uint32","internalType":"uint32"}]},{"type":"error","name":"IncrementalMerkleTree__MerkleTreeFull","inputs":[{"name":"nextIndex","type":"uint32","internalType":"uint32"}]},{"type":"error","name":"IncrementalMerkleTree__RightValueOutOfRange","inputs":[{"name":"right","type":"bytes32","internalType":"bytes32"}]},{"type":"error","name":"Mixer__CommitmentAlreadyAdded","inputs":[{"name":"commitment","type":"bytes32","internalType":"bytes32"}]},{"type":"error","name":"Mixer__DeadlineExpired","inputs":[{"name":"deadline","type":"uint256","internalType":"uint256"},{"name":"nowTs","type":"uint256","internalType":"uint256"}]},{"type":"error","name":"Mixer__DepositValueMismatch","inputs":[{"name":"expected","type":"uint256","internalType":"uint256"},{"name":"actual","type":"uint256","internalType":"uint256"}]},{"type":"error","name":"Mixer__FeeExceedsDepositValue","inputs":[{"name":"expected","type":"uint256","internalType":"uint256"},{"name":"actual","type":"uint256","internalType":"uint256"}]},{"type":"error","name":"Mixer__InvalidWithdrawProof","inputs":[]},{"type":"error","name":"Mixer__NoteAlreadySpent","inputs":[{"name":"nullifierHash","type":"bytes32","internalType":"bytes32"}]},{"type":"error","name":"Mixer__PaymentFailed","inputs":[{"name":"recipient","type":"address","internalType":"address"},{"name":"amount","type":"uint256","internalType":"uint256"}]},{"type":"error","name":"Mixer__RefundNotSupportedForETH","inputs":[{"name":"refund","type":"uint256","internalType":"uint256"}]},{"type":"error","name":"Mixer__UnknownRoot","inputs":[{"name":"root","type":"bytes32","internalType":"bytes32"}]},{"type":"error","name":"ReentrancyGuardReentrantCall","inputs":[]}],"bytecode":{"object":"0x6101006040525f60025f6101000a81548163ffffffff021916908363ffffffff1602179055505f600260046101000a81548163ffffffff021916908363ffffffff160217905550348015610051575f5ffd5b5060405161317d38038061317d8339818101604052810190610073919061096b565b8383838381835f8263ffffffff16036100c357816040517fad6421220000000000000000000000000000000000000000000000000000000081526004016100ba91906109de565b60405180910390fd5b60208263ffffffff161061010e57816040517f79671ced00000000000000000000000000000000000000000000000000000000815260040161010591906109de565b60405180910390fd5b8163ffffffff1660a08163ffffffff16815250508073ffffffffffffffffffffffffffffffffffffffff1660808173ffffffffffffffffffffffffffffffffffffffff168152505061016b8263ffffffff166101d360201b60201c565b60015f5f81526020019081526020015f2081905550505060016003819055508373ffffffffffffffffffffffffffffffffffffffff1660c08173ffffffffffffffffffffffffffffffffffffffff16815250508060e081815250505050505050505050610a1f565b5f5f8203610205577f0d823319708ab99ec915efd4f7e03d11ca1790918e8f04cd14100aceca2aa9ff5f1b9050610850565b60018203610237577f170a9598425eb05eb8dc06986c6afc717811e874326a79576c02d338bdf14f135f1b9050610850565b60028203610269577f273b1a40397b618dac2fc66ceb71399a3e1a60341e546e053cbfa5995e824caf5f1b9050610850565b6003820361029b577f16bf9b1fb2dfa9d88cfb1752d6937a1594d257c2053dff3cb971016bfcffe2a15f1b9050610850565b600482036102cd577f1288271e1f93a29fa6e748b7468a77a9b8fc3db6b216ce5fc2601fc3e9bd6b365f1b9050610850565b600582036102ff577f1d47548adec1068354d163be4ffa348ca89f079b039c9191378584abd79edeca5f1b9050610850565b60068203610331577f0b98a89e6827ef697b8fb2e280a2342d61db1eb5efc229f5f4a77fb333b80bef5f1b9050610850565b60078203610363577f231555e37e6b206f43fdcd4d660c47442d76aab1ef552aef6db45f3f9cf2e9555f1b9050610850565b60088203610395577f03d0dc8c92e2844abcc5fdefe8cb67d93034de0862943990b09c6b8e3fa27a865f1b9050610850565b600982036103c7577f1d51ac275f47f10e592b8e690fd3b28a76106893ac3e60cd7b2a3a443f4e83555f1b9050610850565b600a82036103f9577f16b671eb844a8e4e463e820e26560357edee4ecfdbf5d7b0a28799911505088d5f1b9050610850565b600b820361042b577f115ea0c2f132c5914d5bb737af6eed04115a3896f0d65e12e761ca560083da155f1b9050610850565b600c820361045d577f139a5b42099806c76efb52da0ec1dde06a836bf6f87ef7ab4bac7d00637e28f05f1b9050610850565b600d820361048f577f0804853482335a6533eb6a4ddfc215a08026db413d247a7695e807e38debea8e5f1b9050610850565b600e82036104c1577f2f0b264ab5f5630b591af93d93ec2dfed28eef017b251e40905cdf79836898035f1b9050610850565b600f82036104f3577f170fc161bf1b9610bf196c173bdae82c4adfd93888dc317f5010822a3ba9ebee5f1b9050610850565b60108203610525577f0b2e7665b17622cc0243b6fa35110aa7dd0ee3cc9409650172aa786ca59714395f1b9050610850565b60118203610557577f12d5a033cbeff854c5ba0c5628ac4628104be6ab370699a1b2b4209e518b0ac55f1b9050610850565b60128203610589577f1bc59846eb7eafafc85ba9a99a89562763735322e4255b7c1788a8fe8b90bf5d5f1b9050610850565b601382036105bb577f1b9421fbd79f6972a348a3dd4721781ec25a5d8d27342942ae00aba80a3904d45f1b9050610850565b601482036105ed577f087fde1c4c9c27c347f347083139eee8759179d255ec8381c02298d3d6ccd2335f1b9050610850565b6015820361061f577f1e26b1884cb500b5e6bbfdeedbdca34b961caf3fa9839ea794bfc7f87d10b3f15f1b9050610850565b60168203610651577f09fc1a538b88bda55a53253c62c153e67e8289729afd9b8bfd3f46f5eecd5a725f1b9050610850565b60178203610683577f14cd0edec3423652211db5210475a230ca4771cd1e45315bcd6ea640f14077e25f1b9050610850565b601882036106b5577f1d776a76bc76f4305ef0b0b27a58a9565864fe1b9f2a198e8247b3e599e036ca5f1b9050610850565b601982036106e7577f1f93e3103fed2d3bd056c3ac49b4a0728578be33595959788fa25514cdb5d42f5f1b9050610850565b601a8203610719577f138b0576ee7346fb3f6cfb632f92ae206395824b9333a183c15470404c977a3b5f1b9050610850565b601b820361074b577f0745de8522abfcd24bd50875865592f73a190070b4cb3d8976e3dbff8fdb7f3d5f1b9050610850565b601c820361077d577f2ffb8c798b9dd2645e9187858cb92a86c86dcd1138f5d610c33df2696f5f68605f1b9050610850565b601d82036107af577f2612a1395168260c9999287df0e3c3f1b0d8e008e90cd15941e4c2df08a68a5a5f1b9050610850565b601e82036107e1577f10ebedce66a910039c8edb2cd832d6a9857648ccff5e99b5d08009b44b088edf5f1b9050610850565b601f8203610813577f213fb841f9de06958cf4403477bdbff7c59d6249daabfee147f853db7c8080825f1b9050610850565b816040517f76de02380000000000000000000000000000000000000000000000000000000081526004016108479190610a06565b60405180910390fd5b919050565b5f5ffd5b5f73ffffffffffffffffffffffffffffffffffffffff82169050919050565b5f61088282610859565b9050919050565b5f61089382610878565b9050919050565b6108a381610889565b81146108ad575f5ffd5b50565b5f815190506108be8161089a565b92915050565b5f6108ce82610878565b9050919050565b6108de816108c4565b81146108e8575f5ffd5b50565b5f815190506108f9816108d5565b92915050565b5f63ffffffff82169050919050565b610917816108ff565b8114610921575f5ffd5b50565b5f815190506109328161090e565b92915050565b5f819050919050565b61094a81610938565b8114610954575f5ffd5b50565b5f8151905061096581610941565b92915050565b5f5f5f5f6080858703121561098357610982610855565b5b5f610990878288016108b0565b94505060206109a1878288016108eb565b93505060406109b287828801610924565b92505060606109c387828801610957565b91505092959194509250565b6109d8816108ff565b82525050565b5f6020820190506109f15f8301846109cf565b92915050565b610a0081610938565b82525050565b5f602082019050610a195f8301846109f7565b92915050565b60805160a05160c05160e0516126de610a9f5f395f81816108540152818161087c015281816109af01528181610be401528181610dec01528181610eaa0152610ed101525f8181610ae70152610fb001525f818161077e0152818161188d015261191801525f81816105750152818161075a015261096a01526126de5ff3fe608060405260043610610113575f3560e01c8063821778c71161009f578063b214faa511610063578063b214faa5146103bb578063cd87a3b4146103d7578063db9753a014610401578063e82955881461042b578063ed7cf2df1461046757610113565b8063821778c7146102c7578063871211df146102ef5780638b01429d146103195780639c8b91c1146103435780639dc166b71461037f57610113565b806359f41a81116100e657806359f41a81146101d157806365174af8146101fb5780636d9833e314610237578063705f032f1461027357806373d732021461029d57610113565b806338bf282e14610117578063414a37ba146101535780635445b0071461017d57806357f65706146101a7575b5f5ffd5b348015610122575f5ffd5b5061013d60048036038101906101389190611b3c565b6104a3565b60405161014a9190611b89565b60405180910390f35b34801561015e575f5ffd5b5061016761062a565b6040516101749190611bba565b60405180910390f35b348015610188575f5ffd5b5061019161064e565b60405161019e9190611b89565b60405180910390f35b3480156101b2575f5ffd5b506101bb61067d565b6040516101c89190611bf1565b60405180910390f35b3480156101dc575f5ffd5b506101e5610692565b6040516101f29190611bf1565b60405180910390f35b348015610206575f5ffd5b50610221600480360381019061021c9190611c0a565b6106a8565b60405161022e9190611c4f565b60405180910390f35b348015610242575f5ffd5b5061025d60048036038101906102589190611c0a565b6106c5565b60405161026a9190611c4f565b60405180910390f35b34801561027e575f5ffd5b50610287610758565b6040516102949190611ce2565b60405180910390f35b3480156102a8575f5ffd5b506102b161077c565b6040516102be9190611bf1565b60405180910390f35b3480156102d2575f5ffd5b506102ed60048036038101906102e89190611dc1565b6107a0565b005b3480156102fa575f5ffd5b50610303610dc4565b6040516103109190611b89565b60405180910390f35b348015610324575f5ffd5b5061032d610dea565b60405161033a9190611bba565b60405180910390f35b34801561034e575f5ffd5b5061036960048036038101906103649190611e91565b610e0e565b6040516103769190611b89565b60405180910390f35b34801561038a575f5ffd5b506103a560048036038101906103a09190611c0a565b610e23565b6040516103b29190611c4f565b60405180910390f35b6103d560048036038101906103d09190611c0a565b610e40565b005b3480156103e2575f5ffd5b506103eb610fa9565b6040516103f89190611bf1565b60405180910390f35b34801561040c575f5ffd5b50610415610fae565b6040516104229190611edc565b60405180910390f35b348015610436575f5ffd5b50610451600480360381019061044c9190611e91565b610fd2565b60405161045e9190611b89565b60405180910390f35b348015610472575f5ffd5b5061048d60048036038101906104889190611e91565b611654565b60405161049a9190611b89565b60405180910390f35b5f7f30644e72e131a029b85045b68181585d2833e84879b9709143e1f593f0000001835f1c1061050a57826040517f8636b86a0000000000000000000000000000000000000000000000000000000081526004016105019190611b89565b60405180910390fd5b7f30644e72e131a029b85045b68181585d2833e84879b9709143e1f593f0000001825f1c1061057057816040517f51da4a5b0000000000000000000000000000000000000000000000000000000081526004016105679190611b89565b60405180910390fd5b6106227f000000000000000000000000000000000000000000000000000000000000000073ffffffffffffffffffffffffffffffffffffffff1663055d8d546105b886611668565b6105c186611668565b6040518363ffffffff1660e01b81526004016105de929190611f25565b602060405180830381865afa1580156105f9573d5f5f3e3d5ffd5b505050506040513d601f19601f8201168201806040525081019061061d9190611f76565b61167a565b905092915050565b7f30644e72e131a029b85045b68181585d2833e84879b9709143e1f593f000000181565b5f60015f60025f9054906101000a900463ffffffff1663ffffffff1681526020019081526020015f2054905090565b60025f9054906101000a900463ffffffff1681565b600260049054906101000a900463ffffffff1681565b6004602052805f5260405f205f915054906101000a900460ff1681565b5f5f5f1b82036106d7575f9050610753565b5f60025f9054906101000a900463ffffffff1690505f8190505b60015f8263ffffffff1681526020019081526020015f2054840361071a57600192505050610753565b5f8163ffffffff160361072c57601e90505b808061073790611fce565b9150508163ffffffff168163ffffffff16036106f1575f925050505b919050565b7f000000000000000000000000000000000000000000000000000000000000000081565b7f000000000000000000000000000000000000000000000000000000000000000081565b6107a8611683565b60045f8781526020019081526020015f205f9054906101000a900460ff161561080857856040517fd692b8a20000000000000000000000000000000000000000000000000000000081526004016107ff9190611b89565b60405180910390fd5b610811876106c5565b61085257866040517f6009dbad0000000000000000000000000000000000000000000000000000000081526004016108499190611b89565b60405180910390fd5b7f00000000000000000000000000000000000000000000000000000000000000008311156108d9577f0000000000000000000000000000000000000000000000000000000000000000836040517ff6e0f2e20000000000000000000000000000000000000000000000000000000081526004016108d0929190611ff5565b60405180910390fd5b804211156109205780426040517f85de1a6e000000000000000000000000000000000000000000000000000000008152600401610917929190611ff5565b60405180910390fd5b5f821461096457816040517f7558edc200000000000000000000000000000000000000000000000000000000815260040161095b9190611bba565b60405180910390fd5b5f610a347f000000000000000000000000000000000000000000000000000000000000000073ffffffffffffffffffffffffffffffffffffffff166340ec6e496109d48989898946307f00000000000000000000000000000000000000000000000000000000000000008c6116c9565b6040518263ffffffff1660e01b81526004016109f091906120d3565b602060405180830381865afa158015610a0b573d5f5f3e3d5ffd5b505050506040513d601f19601f82011682018060405250810190610a2f9190611f76565b61167a565b90505f600367ffffffffffffffff811115610a5257610a516120f3565b5b604051908082528060200260200182016040528015610a805781602001602082028036833780820191505090505b50905088815f81518110610a9757610a96612120565b5b6020026020010181815250508781600181518110610ab857610ab7612120565b5b6020026020010181815250508181600281518110610ad957610ad8612120565b5b6020026020010181815250507f000000000000000000000000000000000000000000000000000000000000000073ffffffffffffffffffffffffffffffffffffffff1663ea50d0e48c8c846040518463ffffffff1660e01b8152600401610b429392919061225e565b602060405180830381865afa158015610b5d573d5f5f3e3d5ffd5b505050506040513d601f19601f82011682018060405250810190610b8191906122bf565b610bb7576040517f63cac85c00000000000000000000000000000000000000000000000000000000815260040160405180910390fd5b600160045f8a81526020019081526020015f205f6101000a81548160ff0219169083151502179055505f857f0000000000000000000000000000000000000000000000000000000000000000610c0d91906122ea565b90505f8873ffffffffffffffffffffffffffffffffffffffff1682604051610c349061234a565b5f6040518083038185875af1925050503d805f8114610c6e576040519150601f19603f3d011682016040523d82523d5f602084013e610c73565b606091505b5050905080610cbb5788826040517f44de6dee000000000000000000000000000000000000000000000000000000008152600401610cb292919061237e565b60405180910390fd5b5f8714610d70575f8873ffffffffffffffffffffffffffffffffffffffff1688604051610ce79061234a565b5f6040518083038185875af1925050503d805f8114610d21576040519150601f19603f3d011682016040523d82523d5f602084013e610d26565b606091505b5050905080610d6e5788886040517f44de6dee000000000000000000000000000000000000000000000000000000008152600401610d6592919061237e565b60405180910390fd5b505b7fea54fd2f78218fffaea984db52d66e07f173ae10195ea4e45b2a4d54ba4adf5989898c8a604051610da594939291906123a5565b60405180910390a150505050610db961186a565b505050505050505050565b7f0d823319708ab99ec915efd4f7e03d11ca1790918e8f04cd14100aceca2aa9ff5f1b81565b7f000000000000000000000000000000000000000000000000000000000000000081565b6001602052805f5260405f205f915090505481565b6005602052805f5260405f205f915054906101000a900460ff1681565b610e48611683565b60055f8281526020019081526020015f205f9054906101000a900460ff1615610ea857806040517f248aad93000000000000000000000000000000000000000000000000000000008152600401610e9f9190611b89565b60405180910390fd5b7f00000000000000000000000000000000000000000000000000000000000000003414610f2e577f0000000000000000000000000000000000000000000000000000000000000000346040517f0aa30c9c000000000000000000000000000000000000000000000000000000008152600401610f25929190611ff5565b60405180910390fd5b600160055f8381526020019081526020015f205f6101000a81548160ff0219169083151502179055505f610f6182611874565b9050817fa945e51eec50ab98c161376f0db4cf2aeba3ec92755fe2fcd388bdbbb80ff1968242604051610f959291906123e8565b60405180910390a250610fa661186a565b50565b601e81565b7f000000000000000000000000000000000000000000000000000000000000000081565b5f5f8203611004577f0d823319708ab99ec915efd4f7e03d11ca1790918e8f04cd14100aceca2aa9ff5f1b905061164f565b60018203611036577f170a9598425eb05eb8dc06986c6afc717811e874326a79576c02d338bdf14f135f1b905061164f565b60028203611068577f273b1a40397b618dac2fc66ceb71399a3e1a60341e546e053cbfa5995e824caf5f1b905061164f565b6003820361109a577f16bf9b1fb2dfa9d88cfb1752d6937a1594d257c2053dff3cb971016bfcffe2a15f1b905061164f565b600482036110cc577f1288271e1f93a29fa6e748b7468a77a9b8fc3db6b216ce5fc2601fc3e9bd6b365f1b905061164f565b600582036110fe577f1d47548adec1068354d163be4ffa348ca89f079b039c9191378584abd79edeca5f1b905061164f565b60068203611130577f0b98a89e6827ef697b8fb2e280a2342d61db1eb5efc229f5f4a77fb333b80bef5f1b905061164f565b60078203611162577f231555e37e6b206f43fdcd4d660c47442d76aab1ef552aef6db45f3f9cf2e9555f1b905061164f565b60088203611194577f03d0dc8c92e2844abcc5fdefe8cb67d93034de0862943990b09c6b8e3fa27a865f1b905061164f565b600982036111c6577f1d51ac275f47f10e592b8e690fd3b28a76106893ac3e60cd7b2a3a443f4e83555f1b905061164f565b600a82036111f8577f16b671eb844a8e4e463e820e26560357edee4ecfdbf5d7b0a28799911505088d5f1b905061164f565b600b820361122a577f115ea0c2f132c5914d5bb737af6eed04115a3896f0d65e12e761ca560083da155f1b905061164f565b600c820361125c577f139a5b42099806c76efb52da0ec1dde06a836bf6f87ef7ab4bac7d00637e28f05f1b905061164f565b600d820361128e577f0804853482335a6533eb6a4ddfc215a08026db413d247a7695e807e38debea8e5f1b905061164f565b600e82036112c0577f2f0b264ab5f5630b591af93d93ec2dfed28eef017b251e40905cdf79836898035f1b905061164f565b600f82036112f2577f170fc161bf1b9610bf196c173bdae82c4adfd93888dc317f5010822a3ba9ebee5f1b905061164f565b60108203611324577f0b2e7665b17622cc0243b6fa35110aa7dd0ee3cc9409650172aa786ca59714395f1b905061164f565b60118203611356577f12d5a033cbeff854c5ba0c5628ac4628104be6ab370699a1b2b4209e518b0ac55f1b905061164f565b60128203611388577f1bc59846eb7eafafc85ba9a99a89562763735322e4255b7c1788a8fe8b90bf5d5f1b905061164f565b601382036113ba577f1b9421fbd79f6972a348a3dd4721781ec25a5d8d27342942ae00aba80a3904d45f1b905061164f565b601482036113ec577f087fde1c4c9c27c347f347083139eee8759179d255ec8381c02298d3d6ccd2335f1b905061164f565b6015820361141e577f1e26b1884cb500b5e6bbfdeedbdca34b961caf3fa9839ea794bfc7f87d10b3f15f1b905061164f565b60168203611450577f09fc1a538b88bda55a53253c62c153e67e8289729afd9b8bfd3f46f5eecd5a725f1b905061164f565b60178203611482577f14cd0edec3423652211db5210475a230ca4771cd1e45315bcd6ea640f14077e25f1b905061164f565b601882036114b4577f1d776a76bc76f4305ef0b0b27a58a9565864fe1b9f2a198e8247b3e599e036ca5f1b905061164f565b601982036114e6577f1f93e3103fed2d3bd056c3ac49b4a0728578be33595959788fa25514cdb5d42f5f1b905061164f565b601a8203611518577f138b0576ee7346fb3f6cfb632f92ae206395824b9333a183c15470404c977a3b5f1b905061164f565b601b820361154a577f0745de8522abfcd24bd50875865592f73a190070b4cb3d8976e3dbff8fdb7f3d5f1b905061164f565b601c820361157c577f2ffb8c798b9dd2645e9187858cb92a86c86dcd1138f5d610c33df2696f5f68605f1b905061164f565b601d82036115ae577f2612a1395168260c9999287df0e3c3f1b0d8e008e90cd15941e4c2df08a68a5a5f1b905061164f565b601e82036115e0577f10ebedce66a910039c8edb2cd832d6a9857648ccff5e99b5d08009b44b088edf5f1b905061164f565b601f8203611612577f213fb841f9de06958cf4403477bdbff7c59d6249daabfee147f853db7c8080825f1b905061164f565b816040517f76de02380000000000000000000000000000000000000000000000000000000081526004016116469190611bba565b60405180910390fd5b919050565b5f602052805f5260405f205f915090505481565b5f81905061167581611a81565b919050565b5f819050919050565b6002600354036116bf576040517f3ee5aeb500000000000000000000000000000000000000000000000000000000815260040160405180910390fd5b6002600381905550565b6060600867ffffffffffffffff8111156116e6576116e56120f3565b5b6040519080825280602002602001820160405280156117145781602001602082028036833780820191505090505b50905061172089611ae6565b815f8151811061173357611732612120565b5b60200260200101818152505061174888611ae6565b8160018151811061175c5761175b612120565b5b60200260200101818152505061177187611aef565b8160028151811061178557611784612120565b5b60200260200101818152505061179a86611aef565b816003815181106117ae576117ad612120565b5b6020026020010181815250506117c385611aef565b816004815181106117d7576117d6612120565b5b6020026020010181815250506117ec84611ae6565b81600581518110611800576117ff612120565b5b60200260200101818152505061181583611aef565b8160068151811061182957611828612120565b5b60200260200101818152505061183e82611aef565b8160078151811061185257611851612120565b5b60200260200101818152505098975050505050505050565b6001600381905550565b5f5f600260049054906101000a900463ffffffff1690507f000000000000000000000000000000000000000000000000000000000000000060026118b8919061253e565b63ffffffff168163ffffffff160361190757806040517f341df5fc0000000000000000000000000000000000000000000000000000000081526004016118fe9190611bf1565b60405180910390fd5b5f8190505f8490505f5f5f5f90505b7f000000000000000000000000000000000000000000000000000000000000000063ffffffff168163ffffffff1610156119dc575f6002866119589190612599565b63ffffffff1603611997578392506119758163ffffffff16610fd2565b9150835f5f8363ffffffff1681526020019081526020015f20819055506119b4565b5f5f8263ffffffff1681526020019081526020015f205492508391505b6119be83836104a3565b93506002856119cd91906125c9565b94508080600101915050611916565b505f601e600160025f9054906101000a900463ffffffff166119fe91906125f9565b611a089190612599565b90508060025f6101000a81548163ffffffff021916908363ffffffff1602179055508360015f8363ffffffff1681526020019081526020015f2081905550600186611a5391906125f9565b600260046101000a81548163ffffffff021916908363ffffffff160217905550859650505050505050919050565b7f30644e72e131a029b85045b68181585d2833e84879b9709143e1f593f00000018110611ae3576040517f08c379a0000000000000000000000000000000000000000000000000000000008152600401611ada9061268a565b60405180910390fd5b50565b5f819050919050565b5f819050611afc81611a81565b919050565b5f5ffd5b5f5ffd5b5f819050919050565b611b1b81611b09565b8114611b25575f5ffd5b50565b5f81359050611b3681611b12565b92915050565b5f5f60408385031215611b5257611b51611b01565b5b5f611b5f85828601611b28565b9250506020611b7085828601611b28565b9150509250929050565b611b8381611b09565b82525050565b5f602082019050611b9c5f830184611b7a565b92915050565b5f819050919050565b611bb481611ba2565b82525050565b5f602082019050611bcd5f830184611bab565b92915050565b5f63ffffffff82169050919050565b611beb81611bd3565b82525050565b5f602082019050611c045f830184611be2565b92915050565b5f60208284031215611c1f57611c1e611b01565b5b5f611c2c84828501611b28565b91505092915050565b5f8115159050919050565b611c4981611c35565b82525050565b5f602082019050611c625f830184611c40565b92915050565b5f73ffffffffffffffffffffffffffffffffffffffff82169050919050565b5f819050919050565b5f611caa611ca5611ca084611c68565b611c87565b611c68565b9050919050565b5f611cbb82611c90565b9050919050565b5f611ccc82611cb1565b9050919050565b611cdc81611cc2565b82525050565b5f602082019050611cf55f830184611cd3565b92915050565b5f5ffd5b5f5ffd5b5f5ffd5b5f5f83601f840112611d1c57611d1b611cfb565b5b8235905067ffffffffffffffff811115611d3957611d38611cff565b5b602083019150836001820283011115611d5557611d54611d03565b5b9250929050565b5f611d6682611c68565b9050919050565b611d7681611d5c565b8114611d80575f5ffd5b50565b5f81359050611d9181611d6d565b92915050565b611da081611ba2565b8114611daa575f5ffd5b50565b5f81359050611dbb81611d97565b92915050565b5f5f5f5f5f5f5f5f5f6101008a8c031215611ddf57611dde611b01565b5b5f8a013567ffffffffffffffff811115611dfc57611dfb611b05565b5b611e088c828d01611d07565b99509950506020611e1b8c828d01611b28565b9750506040611e2c8c828d01611b28565b9650506060611e3d8c828d01611d83565b9550506080611e4e8c828d01611d83565b94505060a0611e5f8c828d01611dad565b93505060c0611e708c828d01611dad565b92505060e0611e818c828d01611dad565b9150509295985092959850929598565b5f60208284031215611ea657611ea5611b01565b5b5f611eb384828501611dad565b91505092915050565b5f611ec682611cb1565b9050919050565b611ed681611ebc565b82525050565b5f602082019050611eef5f830184611ecd565b92915050565b5f611f0f611f0a611f0584611ba2565b611c87565b611ba2565b9050919050565b611f1f81611ef5565b82525050565b5f604082019050611f385f830185611f16565b611f456020830184611f16565b9392505050565b611f5581611ba2565b8114611f5f575f5ffd5b50565b5f81519050611f7081611f4c565b92915050565b5f60208284031215611f8b57611f8a611b01565b5b5f611f9884828501611f62565b91505092915050565b7f4e487b71000000000000000000000000000000000000000000000000000000005f52601160045260245ffd5b5f611fd882611bd3565b91505f8203611fea57611fe9611fa1565b5b600182039050919050565b5f6040820190506120085f830185611bab565b6120156020830184611bab565b9392505050565b5f81519050919050565b5f82825260208201905092915050565b5f819050602082019050919050565b61204e81611ef5565b82525050565b5f61205f8383612045565b60208301905092915050565b5f602082019050919050565b5f6120818261201c565b61208b8185612026565b935061209683612036565b805f5b838110156120c65781516120ad8882612054565b97506120b88361206b565b925050600181019050612099565b5085935050505092915050565b5f6020820190508181035f8301526120eb8184612077565b905092915050565b7f4e487b71000000000000000000000000000000000000000000000000000000005f52604160045260245ffd5b7f4e487b71000000000000000000000000000000000000000000000000000000005f52603260045260245ffd5b5f82825260208201905092915050565b828183375f83830152505050565b5f601f19601f8301169050919050565b5f612186838561214d565b935061219383858461215d565b61219c8361216b565b840190509392505050565b5f81519050919050565b5f82825260208201905092915050565b5f819050602082019050919050565b6121d981611b09565b82525050565b5f6121ea83836121d0565b60208301905092915050565b5f602082019050919050565b5f61220c826121a7565b61221681856121b1565b9350612221836121c1565b805f5b8381101561225157815161223888826121df565b9750612243836121f6565b925050600181019050612224565b5085935050505092915050565b5f6040820190508181035f83015261227781858761217b565b9050818103602083015261228b8184612202565b9050949350505050565b61229e81611c35565b81146122a8575f5ffd5b50565b5f815190506122b981612295565b92915050565b5f602082840312156122d4576122d3611b01565b5b5f6122e1848285016122ab565b91505092915050565b5f6122f482611ba2565b91506122ff83611ba2565b925082820390508181111561231757612316611fa1565b5b92915050565b5f81905092915050565b50565b5f6123355f8361231d565b915061234082612327565b5f82019050919050565b5f6123548261232a565b9150819050919050565b5f61236882611cb1565b9050919050565b6123788161235e565b82525050565b5f6040820190506123915f83018561236f565b61239e6020830184611bab565b9392505050565b5f6080820190506123b85f83018761236f565b6123c5602083018661236f565b6123d26040830185611b7a565b6123df6060830184611bab565b95945050505050565b5f6040820190506123fb5f830185611be2565b6124086020830184611bab565b9392505050565b5f8160011c9050919050565b5f5f8291508390505b6001851115612464578086048111156124405761243f611fa1565b5b600185161561244f5780820291505b808102905061245d8561240f565b9450612424565b94509492505050565b5f8261247c5760019050612537565b81612489575f9050612537565b816001811461249f57600281146124a9576124d8565b6001915050612537565b60ff8411156124bb576124ba611fa1565b5b8360020a9150848211156124d2576124d1611fa1565b5b50612537565b5060208310610133831016604e8410600b841016171561250d5782820a90508381111561250857612507611fa1565b5b612537565b61251a848484600161241b565b9250905081840481111561253157612530611fa1565b5b81810290505b9392505050565b5f61254882611bd3565b915061255383611bd3565b925061256463ffffffff848461246d565b905092915050565b7f4e487b71000000000000000000000000000000000000000000000000000000005f52601260045260245ffd5b5f6125a382611bd3565b91506125ae83611bd3565b9250826125be576125bd61256c565b5b828206905092915050565b5f6125d382611bd3565b91506125de83611bd3565b9250826125ee576125ed61256c565b5b828204905092915050565b5f61260382611bd3565b915061260e83611bd3565b9250828201905063ffffffff81111561262a57612629611fa1565b5b92915050565b5f82825260208201905092915050565b7f4669656c643a20696e70757420697320746f6f206c61726765000000000000005f82015250565b5f612674601983612630565b915061267f82612640565b602082019050919050565b5f6020820190508181035f8301526126a181612668565b905091905056fea2646970667358221220682e95997866bb3a79c4ec7cff48808c29b634130e717c378b83dd2c9460b5b264736f6c634300081c0033","linkReferences":{}},"methodIdentifiers":{"DENOMINATION()":"8b01429d","FIELD_SIZE()":"414a37ba","ROOT_HISTORY_SIZE()":"cd87a3b4","ZERO_ELEMENT()":"871211df","deposit(bytes32)":"b214faa5","getLatestRoot()":"5445b007","hashLeftRight(bytes32,bytes32)":"38bf282e","i_depth()":"73d73202","i_hasher()":"705f032f","i_verifier()":"db9753a0","isKnownRoot(bytes32)":"6d9833e3","s_cachedSubtrees(uint256)":"ed7cf2df","s_commitments(bytes32)":"9dc166b7","s_currentRootIndex()":"57f65706","s_nextLeafIndex()":"59f41a81","s_nullifierHashes(bytes32)":"65174af8","s_roots(uint256)":"9c8b91c1","withdraw(bytes,bytes32,bytes32,address,address,uint256,uint256,uint256)":"821778c7","zeros(uint256)":"e8295588"},"id":23}