{"abi":[{"type":"constructor","inputs":[{"name":"_depth","type":"uint32","internalType":"uint32"},{"name":"_hasher","type":"address","internalType":"contract Poseidon2"}],"stateMutability":"nonpayable"},{"type":"function","name":"FIELD_SIZE","inputs":[],"outputs":[{"name":"","type":"uint256","internalType":"uint256"}],"stateMutability":"view"},{"type":"function","name":"ROOT_HISTORY_SIZE","inputs":[],"outputs":[{"name":"","type":"uint32","internalType":"uint32"}],"stateMutability":"view"},{"type":"function","name":"ZERO_ELEMENT","inputs":[],"outputs":[{"name":"","type":"bytes32","internalType":"bytes32"}],"stateMutability":"view"},{"type":"function","name":"getLatestRoot","inputs":[],"outputs":[{"name":"","type":"bytes32","internalType":"bytes32"}],"stateMutability":"view"},{"type":"function","name":"hashLeftRight","inputs":[{"name":"_left","type":"bytes32","internalType":"bytes32"},{"name":"_right","type":"bytes32","internalType":"bytes32"}],"outputs":[{"name":"","type":"bytes32","internalType":"bytes32"}],"stateMutability":"view"},{"type":"function","name":"i_depth","inputs":[],"outputs":[{"name":"","type":"uint32","internalType":"uint32"}],"stateMutability":"view"},{"type":"function","name":"i_hasher","inputs":[],"outputs":[{"name":"","type":"address","internalType":"contract Poseidon2"}],"stateMutability":"view"},{"type":"function","name":"isKnownRoot","inputs":[{"name":"_root","type":"bytes32","internalType":"bytes32"}],"outputs":[{"name":"","type":"bool","internalType":"bool"}],"stateMutability":"view"},{"type":"function","name":"s_cachedSubtrees","inputs":[{"name":"","type":"uint256","internalType":"uint256"}],"outputs":[{"name":"","type":"bytes32","internalType":"bytes32"}],"stateMutability":"view"},{"type":"function","name":"s_currentRootIndex","inputs":[],"outputs":[{"name":"","type":"uint32","internalType":"uint32"}],"stateMutability":"view"},{"type":"function","name":"s_nextLeafIndex","inputs":[],"outputs":[{"name":"","type":"uint32","internalType":"uint32"}],"stateMutability":"view"},{"type":"function","name":"s_roots","inputs":[{"name":"","type":"uint256","internalType":"uint256"}],"outputs":[{"name":"","type":"bytes32","internalType":"bytes32"}],"stateMutability":"view"},{"type":"function","name":"zeros","inputs":[{"name":"i","type":"uint256","internalType":"uint256"}],"outputs":[{"name":"","type":"bytes32","internalType":"bytes32"}],"stateMutability":"pure"},{"type":"error","name":"DepthTooHigh","inputs":[{"name":"depth","type":"uint32","internalType":"uint32"}]},{"type":"error","name":"DepthTooLow","inputs":[{"name":"depth","type":"uint32","internalType":"uint32"}]},{"type":"error","name":"IndexOutOfBounds","inputs":[{"name":"index","type":"uint256","internalType":"uint256"}]},{"type":"error","name":"LeftOutOfRange","inputs":[{"name":"left","type":"bytes32","internalType":"bytes32"}]},{"type":"error","name":"MerkleTreeFull","inputs":[{"name":"nextIndex","type":"uint32","internalType":"uint32"}]},{"type":"error","name":"RightOutOfRange","inputs":[{"name":"right","type":"bytes32","internalType":"bytes32"}]}],"bytecode":{"object":"0x60c06040525f60025f6101000a81548163ffffffff021916908363ffffffff1602179055505f600260046101000a81548163ffffffff021916908363ffffffff160217905550348015610050575f5ffd5b50604051611a49380380611a49833981810160405281019061007291906108aa565b5f8263ffffffff16036100bc57816040517f380cf36a0000000000000000000000000000000000000000000000000000000081526004016100b391906108f7565b60405180910390fd5b60208263ffffffff161061010757816040517f992b32d70000000000000000000000000000000000000000000000000000000081526004016100fe91906108f7565b60405180910390fd5b8163ffffffff1660a08163ffffffff16815250508073ffffffffffffffffffffffffffffffffffffffff1660808173ffffffffffffffffffffffffffffffffffffffff16815250506101648263ffffffff1661018060201b60201c565b60015f5f81526020019081526020015f20819055505050610941565b5f5f82036101b2577f2d2334c6c22cca4c9f7c82c1253d2ebcf562d24fc3d19fa96f2b239ea106c15c5f1b90506107fd565b600182036101e4577f1444b7b1faf9e7bf63d87b30634e1d022f3d408227c527983ca77961bfa4ac735f1b90506107fd565b60028203610216577f091a219e533afef19b2aed1d87b40f5153422e733dea6068395a7a2aa2aecd645f1b90506107fd565b60038203610248577f057832b286ae039a1c749ccd317100c5a1bc4d43794b72487f13825d30f58f065f1b90506107fd565b6004820361027a577f24619cc86b779233b85d09c04ac7a21c7b5d8f979ce84d271838b2ab187601ff5f1b90506107fd565b600582036102ac577f18661f1ca28e3ad5f397039bd84dd5c291e6ed6a0a87c2b50a17dbcde8fdfccf5f1b90506107fd565b600682036102de577f19df16e2249be09b76bda09870b31839e07b509f9ec05f5ac8c92a2058dc99db5f1b90506107fd565b60078203610310577f0abe57148ab0d6512e33af103d4555827be4a4a46e35513cb500c430b4485df05f1b90506107fd565b60088203610342577f1b37e1c00a6e4e66990a4b30adfdf92ad9dfa0714d91f5d94994b9d5e700fbe45f1b90506107fd565b60098203610374577f2201260545c384bb92d5a6e846d1aef9329ea69c80ce4318ea650261e2e583525f1b90506107fd565b600a82036103a6577f07df604cb8325e038eb5edcffca622f59c79f67cd7c7322df2e5510255b89c325f1b90506107fd565b600b82036103d8577f2a7bdb23ace4ad9d76072981377d0c77a0b30958964c10f95c6e301b129e26a55f1b90506107fd565b600c820361040a577f179178211f5b95688304740e1bf5d1f9f4a45a80dd537fba74fa318883c976985f1b90506107fd565b600d820361043c577f04e1a0fd20754512d4e35dc05bd85b8503f579c640a64d29535d0b12625629f85f1b90506107fd565b600e820361046e577f2977922cf63fcfabb42b3d645478cfa76529a1c51c3586233933824cf9d81b975f1b90506107fd565b600f82036104a0577f16e5304428134ad42b3c0fa1b49d2f5dde4222e5aecedefae66c37ac2429b5b65f1b90506107fd565b601082036104d2577f30447c94987fccba088ca9766c10fc87b306ed6d47c1c42a948d426fcdf10f7e5f1b90506107fd565b60118203610504577f1075de1da1b02ad5f86d6357a9257bf69ef6b0db36a5cb4c9fad6671a2f0aeab5f1b90506107fd565b60128203610536577f1abf7816fbfcda20a989d8b8baf4cdb6558267024ad747ffce15e3dd139dced05f1b90506107fd565b60138203610568577f1e26be9ad01cdb41aed15fd8cc2b251e5682dbc995ca6cce6c14fb2be3a50b1f5f1b90506107fd565b6014820361059a577f189a1825ac285fa50c4c63435058c7a61e215faecf49adcfd12ad87ffe6fc81f5f1b90506107fd565b601582036105cc577f2e06f4ff7576d5b815147b3aece9b22fd99bd083a68265c2cfada14d3c8bd1fb5f1b90506107fd565b601682036105fe577f2566c8c68fe024bbf54dbb653de0bab4dfc99140a843ac3e4454776bc57487245f1b90506107fd565b60178203610630577f01f821d6c1f1560c3527d5020debe70f8e927015d8179aadb8ec97770f0fbafa5f1b90506107fd565b60188203610662577f04521db73493e93e6a2b097d0b7df7e3e776d291e2f8f6fb03ebbbfb2a65a4cb5f1b90506107fd565b60198203610694577f19a7f24e50117866200d7fe5e1a3c1c58dc73a5a589ecfad841c930ce28230995f1b90506107fd565b601a82036106c6577f06132a64acd2a68767445d0c903f2eb2e1767e671e51a6871dc01e0380367cf55f1b90506107fd565b601b82036106f8577f0fc21bbc87ea45a2d0c74b75f96dc3a6fbb5de3f03a689a34bf6e81bd911f98c5f1b90506107fd565b601c820361072a577f2ac64215fef890d62a3b28e378ec28f9b770171398906ac13348dc48aa3383e95f1b90506107fd565b601d820361075c577f2ef381c346c323aa901801f51041fee24a07378e1b0100d79246f892dd7cb1045f1b90506107fd565b601e820361078e577f2f6183ceecab37c4b9bb9ce5bc23544332897f21d81692503902f85177c4e1925f1b90506107fd565b601f82036107c0577f1c9d9ffb4236d5b9b6456573116a15660cfc4a5db59e8ada985c1064b44525385f1b90506107fd565b816040517f44945fcc0000000000000000000000000000000000000000000000000000000081526004016107f49190610928565b60405180910390fd5b919050565b5f5ffd5b5f63ffffffff82169050919050565b61081e81610806565b8114610828575f5ffd5b50565b5f8151905061083981610815565b92915050565b5f73ffffffffffffffffffffffffffffffffffffffff82169050919050565b5f6108688261083f565b9050919050565b5f6108798261085e565b9050919050565b6108898161086f565b8114610893575f5ffd5b50565b5f815190506108a481610880565b92915050565b5f5f604083850312156108c0576108bf610802565b5b5f6108cd8582860161082b565b92505060206108de85828601610896565b9150509250929050565b6108f181610806565b82525050565b5f60208201905061090a5f8301846108e8565b92915050565b5f819050919050565b61092281610910565b82525050565b5f60208201905061093b5f830184610919565b92915050565b60805160a0516110e06109695f395f61056f01525f8181610383015261054b01526110e05ff3fe608060405234801561000f575f5ffd5b50600436106100cd575f3560e01c8063705f032f1161008a5780639c8b91c1116100645780639c8b91c114610203578063cd87a3b414610233578063e829558814610251578063ed7cf2df14610281576100cd565b8063705f032f146101a957806373d73202146101c7578063871211df146101e5576100cd565b806338bf282e146100d1578063414a37ba146101015780635445b0071461011f57806357f657061461013d57806359f41a811461015b5780636d9833e314610179575b5f5ffd5b6100eb60048036038101906100e69190610d1e565b6102b1565b6040516100f89190610d6b565b60405180910390f35b610109610438565b6040516101169190610d9c565b60405180910390f35b61012761045c565b6040516101349190610d6b565b60405180910390f35b61014561048b565b6040516101529190610dd3565b60405180910390f35b6101636104a0565b6040516101709190610dd3565b60405180910390f35b610193600480360381019061018e9190610dec565b6104b6565b6040516101a09190610e31565b60405180910390f35b6101b1610549565b6040516101be9190610ec4565b60405180910390f35b6101cf61056d565b6040516101dc9190610dd3565b60405180910390f35b6101ed610591565b6040516101fa9190610d6b565b60405180910390f35b61021d60048036038101906102189190610f07565b6105b7565b60405161022a9190610d6b565b60405180910390f35b61023b6105cc565b6040516102489190610dd3565b60405180910390f35b61026b60048036038101906102669190610f07565b6105d1565b6040516102789190610d6b565b60405180910390f35b61029b60048036038101906102969190610f07565b610c53565b6040516102a89190610d6b565b60405180910390f35b5f7f30644e72e131a029b85045b68181585d2833e84879b9709143e1f593f0000001835f1c1061031857826040517f6041d45400000000000000000000000000000000000000000000000000000000815260040161030f9190610d6b565b60405180910390fd5b7f30644e72e131a029b85045b68181585d2833e84879b9709143e1f593f0000001825f1c1061037e57816040517f4626dad60000000000000000000000000000000000000000000000000000000081526004016103759190610d6b565b60405180910390fd5b6104307f000000000000000000000000000000000000000000000000000000000000000073ffffffffffffffffffffffffffffffffffffffff1663055d8d546103c686610c67565b6103cf86610c67565b6040518363ffffffff1660e01b81526004016103ec929190610f62565b602060405180830381865afa158015610407573d5f5f3e3d5ffd5b505050506040513d601f19601f8201168201806040525081019061042b9190610fb3565b610c79565b905092915050565b7f30644e72e131a029b85045b68181585d2833e84879b9709143e1f593f000000181565b5f60015f60025f9054906101000a900463ffffffff1663ffffffff1681526020019081526020015f2054905090565b60025f9054906101000a900463ffffffff1681565b600260049054906101000a900463ffffffff1681565b5f5f5f1b82036104c8575f9050610544565b5f60025f9054906101000a900463ffffffff1690505f8190505b60015f8263ffffffff1681526020019081526020015f2054840361050b57600192505050610544565b5f8163ffffffff160361051d57601e90505b80806105289061100b565b9150508163ffffffff168163ffffffff16036104e2575f925050505b919050565b7f000000000000000000000000000000000000000000000000000000000000000081565b7f000000000000000000000000000000000000000000000000000000000000000081565b7f2d2334c6c22cca4c9f7c82c1253d2ebcf562d24fc3d19fa96f2b239ea106c15c5f1b81565b6001602052805f5260405f205f915090505481565b601e81565b5f5f8203610603577f2d2334c6c22cca4c9f7c82c1253d2ebcf562d24fc3d19fa96f2b239ea106c15c5f1b9050610c4e565b60018203610635577f1444b7b1faf9e7bf63d87b30634e1d022f3d408227c527983ca77961bfa4ac735f1b9050610c4e565b60028203610667577f091a219e533afef19b2aed1d87b40f5153422e733dea6068395a7a2aa2aecd645f1b9050610c4e565b60038203610699577f057832b286ae039a1c749ccd317100c5a1bc4d43794b72487f13825d30f58f065f1b9050610c4e565b600482036106cb577f24619cc86b779233b85d09c04ac7a21c7b5d8f979ce84d271838b2ab187601ff5f1b9050610c4e565b600582036106fd577f18661f1ca28e3ad5f397039bd84dd5c291e6ed6a0a87c2b50a17dbcde8fdfccf5f1b9050610c4e565b6006820361072f577f19df16e2249be09b76bda09870b31839e07b509f9ec05f5ac8c92a2058dc99db5f1b9050610c4e565b60078203610761577f0abe57148ab0d6512e33af103d4555827be4a4a46e35513cb500c430b4485df05f1b9050610c4e565b60088203610793577f1b37e1c00a6e4e66990a4b30adfdf92ad9dfa0714d91f5d94994b9d5e700fbe45f1b9050610c4e565b600982036107c5577f2201260545c384bb92d5a6e846d1aef9329ea69c80ce4318ea650261e2e583525f1b9050610c4e565b600a82036107f7577f07df604cb8325e038eb5edcffca622f59c79f67cd7c7322df2e5510255b89c325f1b9050610c4e565b600b8203610829577f2a7bdb23ace4ad9d76072981377d0c77a0b30958964c10f95c6e301b129e26a55f1b9050610c4e565b600c820361085b577f179178211f5b95688304740e1bf5d1f9f4a45a80dd537fba74fa318883c976985f1b9050610c4e565b600d820361088d577f04e1a0fd20754512d4e35dc05bd85b8503f579c640a64d29535d0b12625629f85f1b9050610c4e565b600e82036108bf577f2977922cf63fcfabb42b3d645478cfa76529a1c51c3586233933824cf9d81b975f1b9050610c4e565b600f82036108f1577f16e5304428134ad42b3c0fa1b49d2f5dde4222e5aecedefae66c37ac2429b5b65f1b9050610c4e565b60108203610923577f30447c94987fccba088ca9766c10fc87b306ed6d47c1c42a948d426fcdf10f7e5f1b9050610c4e565b60118203610955577f1075de1da1b02ad5f86d6357a9257bf69ef6b0db36a5cb4c9fad6671a2f0aeab5f1b9050610c4e565b60128203610987577f1abf7816fbfcda20a989d8b8baf4cdb6558267024ad747ffce15e3dd139dced05f1b9050610c4e565b601382036109b9577f1e26be9ad01cdb41aed15fd8cc2b251e5682dbc995ca6cce6c14fb2be3a50b1f5f1b9050610c4e565b601482036109eb577f189a1825ac285fa50c4c63435058c7a61e215faecf49adcfd12ad87ffe6fc81f5f1b9050610c4e565b60158203610a1d577f2e06f4ff7576d5b815147b3aece9b22fd99bd083a68265c2cfada14d3c8bd1fb5f1b9050610c4e565b60168203610a4f577f2566c8c68fe024bbf54dbb653de0bab4dfc99140a843ac3e4454776bc57487245f1b9050610c4e565b60178203610a81577f01f821d6c1f1560c3527d5020debe70f8e927015d8179aadb8ec97770f0fbafa5f1b9050610c4e565b60188203610ab3577f04521db73493e93e6a2b097d0b7df7e3e776d291e2f8f6fb03ebbbfb2a65a4cb5f1b9050610c4e565b60198203610ae5577f19a7f24e50117866200d7fe5e1a3c1c58dc73a5a589ecfad841c930ce28230995f1b9050610c4e565b601a8203610b17577f06132a64acd2a68767445d0c903f2eb2e1767e671e51a6871dc01e0380367cf55f1b9050610c4e565b601b8203610b49577f0fc21bbc87ea45a2d0c74b75f96dc3a6fbb5de3f03a689a34bf6e81bd911f98c5f1b9050610c4e565b601c8203610b7b577f2ac64215fef890d62a3b28e378ec28f9b770171398906ac13348dc48aa3383e95f1b9050610c4e565b601d8203610bad577f2ef381c346c323aa901801f51041fee24a07378e1b0100d79246f892dd7cb1045f1b9050610c4e565b601e8203610bdf577f2f6183ceecab37c4b9bb9ce5bc23544332897f21d81692503902f85177c4e1925f1b9050610c4e565b601f8203610c11577f1c9d9ffb4236d5b9b6456573116a15660cfc4a5db59e8ada985c1064b44525385f1b9050610c4e565b816040517f44945fcc000000000000000000000000000000000000000000000000000000008152600401610c459190610d9c565b60405180910390fd5b919050565b5f602052805f5260405f205f915090505481565b5f819050610c7481610c82565b919050565b5f819050919050565b7f30644e72e131a029b85045b68181585d2833e84879b9709143e1f593f00000018110610ce4576040517f08c379a0000000000000000000000000000000000000000000000000000000008152600401610cdb9061108c565b60405180910390fd5b50565b5f5ffd5b5f819050919050565b610cfd81610ceb565b8114610d07575f5ffd5b50565b5f81359050610d1881610cf4565b92915050565b5f5f60408385031215610d3457610d33610ce7565b5b5f610d4185828601610d0a565b9250506020610d5285828601610d0a565b9150509250929050565b610d6581610ceb565b82525050565b5f602082019050610d7e5f830184610d5c565b92915050565b5f819050919050565b610d9681610d84565b82525050565b5f602082019050610daf5f830184610d8d565b92915050565b5f63ffffffff82169050919050565b610dcd81610db5565b82525050565b5f602082019050610de65f830184610dc4565b92915050565b5f60208284031215610e0157610e00610ce7565b5b5f610e0e84828501610d0a565b91505092915050565b5f8115159050919050565b610e2b81610e17565b82525050565b5f602082019050610e445f830184610e22565b92915050565b5f73ffffffffffffffffffffffffffffffffffffffff82169050919050565b5f819050919050565b5f610e8c610e87610e8284610e4a565b610e69565b610e4a565b9050919050565b5f610e9d82610e72565b9050919050565b5f610eae82610e93565b9050919050565b610ebe81610ea4565b82525050565b5f602082019050610ed75f830184610eb5565b92915050565b610ee681610d84565b8114610ef0575f5ffd5b50565b5f81359050610f0181610edd565b92915050565b5f60208284031215610f1c57610f1b610ce7565b5b5f610f2984828501610ef3565b91505092915050565b5f610f4c610f47610f4284610d84565b610e69565b610d84565b9050919050565b610f5c81610f32565b82525050565b5f604082019050610f755f830185610f53565b610f826020830184610f53565b9392505050565b610f9281610d84565b8114610f9c575f5ffd5b50565b5f81519050610fad81610f89565b92915050565b5f60208284031215610fc857610fc7610ce7565b5b5f610fd584828501610f9f565b91505092915050565b7f4e487b71000000000000000000000000000000000000000000000000000000005f52601160045260245ffd5b5f61101582610db5565b91505f820361102757611026610fde565b5b600182039050919050565b5f82825260208201905092915050565b7f4669656c643a20696e70757420697320746f6f206c61726765000000000000005f82015250565b5f611076601983611032565b915061108182611042565b602082019050919050565b5f6020820190508181035f8301526110a38161106a565b905091905056fea26469706673582212202df59061fff7063f4947933d3dffa6397eba3e4b521f16d82b10f2c85800b47564736f6c634300081c0033","linkReferences":{}},"methodIdentifiers":{"FIELD_SIZE()":"414a37ba","ROOT_HISTORY_SIZE()":"cd87a3b4","ZERO_ELEMENT()":"871211df","getLatestRoot()":"5445b007","hashLeftRight(bytes32,bytes32)":"38bf282e","i_depth()":"73d73202","i_hasher()":"705f032f","isKnownRoot(bytes32)":"6d9833e3","s_cachedSubtrees(uint256)":"ed7cf2df","s_currentRootIndex()":"57f65706","s_nextLeafIndex()":"59f41a81","s_roots(uint256)":"9c8b91c1","zeros(uint256)":"e8295588"},"id":24}