{"abi":[{"type":"constructor","inputs":[{"name":"_depth","type":"uint32","internalType":"uint32"},{"name":"_hasher","type":"address","internalType":"contract Poseidon2"}],"stateMutability":"nonpayable"},{"type":"function","name":"FIELD_SIZE","inputs":[],"outputs":[{"name":"","type":"uint256","internalType":"uint256"}],"stateMutability":"view"},{"type":"function","name":"ROOT_HISTORY_SIZE","inputs":[],"outputs":[{"name":"","type":"uint32","internalType":"uint32"}],"stateMutability":"view"},{"type":"function","name":"ZERO_ELEMENT","inputs":[],"outputs":[{"name":"","type":"bytes32","internalType":"bytes32"}],"stateMutability":"view"},{"type":"function","name":"getLatestRoot","inputs":[],"outputs":[{"name":"","type":"bytes32","internalType":"bytes32"}],"stateMutability":"view"},{"type":"function","name":"hashLeftRight","inputs":[{"name":"_left","type":"bytes32","internalType":"bytes32"},{"name":"_right","type":"bytes32","internalType":"bytes32"}],"outputs":[{"name":"","type":"bytes32","internalType":"bytes32"}],"stateMutability":"view"},{"type":"function","name":"i_depth","inputs":[],"outputs":[{"name":"","type":"uint32","internalType":"uint32"}],"stateMutability":"view"},{"type":"function","name":"i_hasher","inputs":[],"outputs":[{"name":"","type":"address","internalType":"contract Poseidon2"}],"stateMutability":"view"},{"type":"function","name":"isKnownRoot","inputs":[{"name":"_root","type":"bytes32","internalType":"bytes32"}],"outputs":[{"name":"","type":"bool","internalType":"bool"}],"stateMutability":"view"},{"type":"function","name":"s_cachedSubtrees","inputs":[{"name":"","type":"uint256","internalType":"uint256"}],"outputs":[{"name":"","type":"bytes32","internalType":"bytes32"}],"stateMutability":"view"},{"type":"function","name":"s_currentRootIndex","inputs":[],"outputs":[{"name":"","type":"uint32","internalType":"uint32"}],"stateMutability":"view"},{"type":"function","name":"s_nextLeafIndex","inputs":[],"outputs":[{"name":"","type":"uint32","internalType":"uint32"}],"stateMutability":"view"},{"type":"function","name":"s_roots","inputs":[{"name":"","type":"uint256","internalType":"uint256"}],"outputs":[{"name":"","type":"bytes32","internalType":"bytes32"}],"stateMutability":"view"},{"type":"function","name":"zeros","inputs":[{"name":"i","type":"uint256","internalType":"uint256"}],"outputs":[{"name":"","type":"bytes32","internalType":"bytes32"}],"stateMutability":"pure"},{"type":"error","name":"IncrementalMerkleTree__IndexOutOfBounds","inputs":[{"name":"index","type":"uint256","internalType":"uint256"}]},{"type":"error","name":"IncrementalMerkleTree__LeftValueOutOfRange","inputs":[{"name":"left","type":"bytes32","internalType":"bytes32"}]},{"type":"error","name":"IncrementalMerkleTree__LevelsShouldBeGreaterThanZero","inputs":[{"name":"depth","type":"uint32","internalType":"uint32"}]},{"type":"error","name":"IncrementalMerkleTree__LevelsShouldBeLessThan32","inputs":[{"name":"depth","type":"uint32","internalType":"uint32"}]},{"type":"error","name":"IncrementalMerkleTree__MerkleTreeFull","inputs":[{"name":"nextIndex","type":"uint32","internalType":"uint32"}]},{"type":"error","name":"IncrementalMerkleTree__RightValueOutOfRange","inputs":[{"name":"right","type":"bytes32","internalType":"bytes32"}]}],"bytecode":{"object":"0x60c06040525f60025f6101000a81548163ffffffff021916908363ffffffff1602179055505f600260046101000a81548163ffffffff021916908363ffffffff160217905550348015610050575f5ffd5b50604051611a49380380611a49833981810160405281019061007291906108aa565b5f8263ffffffff16036100bc57816040517fad6421220000000000000000000000000000000000000000000000000000000081526004016100b391906108f7565b60405180910390fd5b60208263ffffffff161061010757816040517f79671ced0000000000000000000000000000000000000000000000000000000081526004016100fe91906108f7565b60405180910390fd5b8163ffffffff1660a08163ffffffff16815250508073ffffffffffffffffffffffffffffffffffffffff1660808173ffffffffffffffffffffffffffffffffffffffff16815250506101648263ffffffff1661018060201b60201c565b60015f5f81526020019081526020015f20819055505050610941565b5f5f82036101b2577f0d823319708ab99ec915efd4f7e03d11ca1790918e8f04cd14100aceca2aa9ff5f1b90506107fd565b600182036101e4577f170a9598425eb05eb8dc06986c6afc717811e874326a79576c02d338bdf14f135f1b90506107fd565b60028203610216577f273b1a40397b618dac2fc66ceb71399a3e1a60341e546e053cbfa5995e824caf5f1b90506107fd565b60038203610248577f16bf9b1fb2dfa9d88cfb1752d6937a1594d257c2053dff3cb971016bfcffe2a15f1b90506107fd565b6004820361027a577f1288271e1f93a29fa6e748b7468a77a9b8fc3db6b216ce5fc2601fc3e9bd6b365f1b90506107fd565b600582036102ac577f1d47548adec1068354d163be4ffa348ca89f079b039c9191378584abd79edeca5f1b90506107fd565b600682036102de577f0b98a89e6827ef697b8fb2e280a2342d61db1eb5efc229f5f4a77fb333b80bef5f1b90506107fd565b60078203610310577f231555e37e6b206f43fdcd4d660c47442d76aab1ef552aef6db45f3f9cf2e9555f1b90506107fd565b60088203610342577f03d0dc8c92e2844abcc5fdefe8cb67d93034de0862943990b09c6b8e3fa27a865f1b90506107fd565b60098203610374577f1d51ac275f47f10e592b8e690fd3b28a76106893ac3e60cd7b2a3a443f4e83555f1b90506107fd565b600a82036103a6577f16b671eb844a8e4e463e820e26560357edee4ecfdbf5d7b0a28799911505088d5f1b90506107fd565b600b82036103d8577f115ea0c2f132c5914d5bb737af6eed04115a3896f0d65e12e761ca560083da155f1b90506107fd565b600c820361040a577f139a5b42099806c76efb52da0ec1dde06a836bf6f87ef7ab4bac7d00637e28f05f1b90506107fd565b600d820361043c577f0804853482335a6533eb6a4ddfc215a08026db413d247a7695e807e38debea8e5f1b90506107fd565b600e820361046e577f2f0b264ab5f5630b591af93d93ec2dfed28eef017b251e40905cdf79836898035f1b90506107fd565b600f82036104a0577f170fc161bf1b9610bf196c173bdae82c4adfd93888dc317f5010822a3ba9ebee5f1b90506107fd565b601082036104d2577f0b2e7665b17622cc0243b6fa35110aa7dd0ee3cc9409650172aa786ca59714395f1b90506107fd565b60118203610504577f12d5a033cbeff854c5ba0c5628ac4628104be6ab370699a1b2b4209e518b0ac55f1b90506107fd565b60128203610536577f1bc59846eb7eafafc85ba9a99a89562763735322e4255b7c1788a8fe8b90bf5d5f1b90506107fd565b60138203610568577f1b9421fbd79f6972a348a3dd4721781ec25a5d8d27342942ae00aba80a3904d45f1b90506107fd565b6014820361059a577f087fde1c4c9c27c347f347083139eee8759179d255ec8381c02298d3d6ccd2335f1b90506107fd565b601582036105cc577f1e26b1884cb500b5e6bbfdeedbdca34b961caf3fa9839ea794bfc7f87d10b3f15f1b90506107fd565b601682036105fe577f09fc1a538b88bda55a53253c62c153e67e8289729afd9b8bfd3f46f5eecd5a725f1b90506107fd565b60178203610630577f14cd0edec3423652211db5210475a230ca4771cd1e45315bcd6ea640f14077e25f1b90506107fd565b60188203610662577f1d776a76bc76f4305ef0b0b27a58a9565864fe1b9f2a198e8247b3e599e036ca5f1b90506107fd565b60198203610694577f1f93e3103fed2d3bd056c3ac49b4a0728578be33595959788fa25514cdb5d42f5f1b90506107fd565b601a82036106c6577f138b0576ee7346fb3f6cfb632f92ae206395824b9333a183c15470404c977a3b5f1b90506107fd565b601b82036106f8577f0745de8522abfcd24bd50875865592f73a190070b4cb3d8976e3dbff8fdb7f3d5f1b90506107fd565b601c820361072a577f2ffb8c798b9dd2645e9187858cb92a86c86dcd1138f5d610c33df2696f5f68605f1b90506107fd565b601d820361075c577f2612a1395168260c9999287df0e3c3f1b0d8e008e90cd15941e4c2df08a68a5a5f1b90506107fd565b601e820361078e577f10ebedce66a910039c8edb2cd832d6a9857648ccff5e99b5d08009b44b088edf5f1b90506107fd565b601f82036107c0577f213fb841f9de06958cf4403477bdbff7c59d6249daabfee147f853db7c8080825f1b90506107fd565b816040517f76de02380000000000000000000000000000000000000000000000000000000081526004016107f49190610928565b60405180910390fd5b919050565b5f5ffd5b5f63ffffffff82169050919050565b61081e81610806565b8114610828575f5ffd5b50565b5f8151905061083981610815565b92915050565b5f73ffffffffffffffffffffffffffffffffffffffff82169050919050565b5f6108688261083f565b9050919050565b5f6108798261085e565b9050919050565b6108898161086f565b8114610893575f5ffd5b50565b5f815190506108a481610880565b92915050565b5f5f604083850312156108c0576108bf610802565b5b5f6108cd8582860161082b565b92505060206108de85828601610896565b9150509250929050565b6108f181610806565b82525050565b5f60208201905061090a5f8301846108e8565b92915050565b5f819050919050565b61092281610910565b82525050565b5f60208201905061093b5f830184610919565b92915050565b60805160a0516110e06109695f395f61056f01525f8181610383015261054b01526110e05ff3fe608060405234801561000f575f5ffd5b50600436106100cd575f3560e01c8063705f032f1161008a5780639c8b91c1116100645780639c8b91c114610203578063cd87a3b414610233578063e829558814610251578063ed7cf2df14610281576100cd565b8063705f032f146101a957806373d73202146101c7578063871211df146101e5576100cd565b806338bf282e146100d1578063414a37ba146101015780635445b0071461011f57806357f657061461013d57806359f41a811461015b5780636d9833e314610179575b5f5ffd5b6100eb60048036038101906100e69190610d1e565b6102b1565b6040516100f89190610d6b565b60405180910390f35b610109610438565b6040516101169190610d9c565b60405180910390f35b61012761045c565b6040516101349190610d6b565b60405180910390f35b61014561048b565b6040516101529190610dd3565b60405180910390f35b6101636104a0565b6040516101709190610dd3565b60405180910390f35b610193600480360381019061018e9190610dec565b6104b6565b6040516101a09190610e31565b60405180910390f35b6101b1610549565b6040516101be9190610ec4565b60405180910390f35b6101cf61056d565b6040516101dc9190610dd3565b60405180910390f35b6101ed610591565b6040516101fa9190610d6b565b60405180910390f35b61021d60048036038101906102189190610f07565b6105b7565b60405161022a9190610d6b565b60405180910390f35b61023b6105cc565b6040516102489190610dd3565b60405180910390f35b61026b60048036038101906102669190610f07565b6105d1565b6040516102789190610d6b565b60405180910390f35b61029b60048036038101906102969190610f07565b610c53565b6040516102a89190610d6b565b60405180910390f35b5f7f30644e72e131a029b85045b68181585d2833e84879b9709143e1f593f0000001835f1c1061031857826040517f8636b86a00000000000000000000000000000000000000000000000000000000815260040161030f9190610d6b565b60405180910390fd5b7f30644e72e131a029b85045b68181585d2833e84879b9709143e1f593f0000001825f1c1061037e57816040517f51da4a5b0000000000000000000000000000000000000000000000000000000081526004016103759190610d6b565b60405180910390fd5b6104307f000000000000000000000000000000000000000000000000000000000000000073ffffffffffffffffffffffffffffffffffffffff1663055d8d546103c686610c67565b6103cf86610c67565b6040518363ffffffff1660e01b81526004016103ec929190610f62565b602060405180830381865afa158015610407573d5f5f3e3d5ffd5b505050506040513d601f19601f8201168201806040525081019061042b9190610fb3565b610c79565b905092915050565b7f30644e72e131a029b85045b68181585d2833e84879b9709143e1f593f000000181565b5f60015f60025f9054906101000a900463ffffffff1663ffffffff1681526020019081526020015f2054905090565b60025f9054906101000a900463ffffffff1681565b600260049054906101000a900463ffffffff1681565b5f5f5f1b82036104c8575f9050610544565b5f60025f9054906101000a900463ffffffff1690505f8190505b60015f8263ffffffff1681526020019081526020015f2054840361050b57600192505050610544565b5f8163ffffffff160361051d57601e90505b80806105289061100b565b9150508163ffffffff168163ffffffff16036104e2575f925050505b919050565b7f000000000000000000000000000000000000000000000000000000000000000081565b7f000000000000000000000000000000000000000000000000000000000000000081565b7f0d823319708ab99ec915efd4f7e03d11ca1790918e8f04cd14100aceca2aa9ff5f1b81565b6001602052805f5260405f205f915090505481565b601e81565b5f5f8203610603577f0d823319708ab99ec915efd4f7e03d11ca1790918e8f04cd14100aceca2aa9ff5f1b9050610c4e565b60018203610635577f170a9598425eb05eb8dc06986c6afc717811e874326a79576c02d338bdf14f135f1b9050610c4e565b60028203610667577f273b1a40397b618dac2fc66ceb71399a3e1a60341e546e053cbfa5995e824caf5f1b9050610c4e565b60038203610699577f16bf9b1fb2dfa9d88cfb1752d6937a1594d257c2053dff3cb971016bfcffe2a15f1b9050610c4e565b600482036106cb577f1288271e1f93a29fa6e748b7468a77a9b8fc3db6b216ce5fc2601fc3e9bd6b365f1b9050610c4e565b600582036106fd577f1d47548adec1068354d163be4ffa348ca89f079b039c9191378584abd79edeca5f1b9050610c4e565b6006820361072f577f0b98a89e6827ef697b8fb2e280a2342d61db1eb5efc229f5f4a77fb333b80bef5f1b9050610c4e565b60078203610761577f231555e37e6b206f43fdcd4d660c47442d76aab1ef552aef6db45f3f9cf2e9555f1b9050610c4e565b60088203610793577f03d0dc8c92e2844abcc5fdefe8cb67d93034de0862943990b09c6b8e3fa27a865f1b9050610c4e565b600982036107c5577f1d51ac275f47f10e592b8e690fd3b28a76106893ac3e60cd7b2a3a443f4e83555f1b9050610c4e565b600a82036107f7577f16b671eb844a8e4e463e820e26560357edee4ecfdbf5d7b0a28799911505088d5f1b9050610c4e565b600b8203610829577f115ea0c2f132c5914d5bb737af6eed04115a3896f0d65e12e761ca560083da155f1b9050610c4e565b600c820361085b577f139a5b42099806c76efb52da0ec1dde06a836bf6f87ef7ab4bac7d00637e28f05f1b9050610c4e565b600d820361088d577f0804853482335a6533eb6a4ddfc215a08026db413d247a7695e807e38debea8e5f1b9050610c4e565b600e82036108bf577f2f0b264ab5f5630b591af93d93ec2dfed28eef017b251e40905cdf79836898035f1b9050610c4e565b600f82036108f1577f170fc161bf1b9610bf196c173bdae82c4adfd93888dc317f5010822a3ba9ebee5f1b9050610c4e565b60108203610923577f0b2e7665b17622cc0243b6fa35110aa7dd0ee3cc9409650172aa786ca59714395f1b9050610c4e565b60118203610955577f12d5a033cbeff854c5ba0c5628ac4628104be6ab370699a1b2b4209e518b0ac55f1b9050610c4e565b60128203610987577f1bc59846eb7eafafc85ba9a99a89562763735322e4255b7c1788a8fe8b90bf5d5f1b9050610c4e565b601382036109b9577f1b9421fbd79f6972a348a3dd4721781ec25a5d8d27342942ae00aba80a3904d45f1b9050610c4e565b601482036109eb577f087fde1c4c9c27c347f347083139eee8759179d255ec8381c02298d3d6ccd2335f1b9050610c4e565b60158203610a1d577f1e26b1884cb500b5e6bbfdeedbdca34b961caf3fa9839ea794bfc7f87d10b3f15f1b9050610c4e565b60168203610a4f577f09fc1a538b88bda55a53253c62c153e67e8289729afd9b8bfd3f46f5eecd5a725f1b9050610c4e565b60178203610a81577f14cd0edec3423652211db5210475a230ca4771cd1e45315bcd6ea640f14077e25f1b9050610c4e565b60188203610ab3577f1d776a76bc76f4305ef0b0b27a58a9565864fe1b9f2a198e8247b3e599e036ca5f1b9050610c4e565b60198203610ae5577f1f93e3103fed2d3bd056c3ac49b4a0728578be33595959788fa25514cdb5d42f5f1b9050610c4e565b601a8203610b17577f138b0576ee7346fb3f6cfb632f92ae206395824b9333a183c15470404c977a3b5f1b9050610c4e565b601b8203610b49577f0745de8522abfcd24bd50875865592f73a190070b4cb3d8976e3dbff8fdb7f3d5f1b9050610c4e565b601c8203610b7b577f2ffb8c798b9dd2645e9187858cb92a86c86dcd1138f5d610c33df2696f5f68605f1b9050610c4e565b601d8203610bad577f2612a1395168260c9999287df0e3c3f1b0d8e008e90cd15941e4c2df08a68a5a5f1b9050610c4e565b601e8203610bdf577f10ebedce66a910039c8edb2cd832d6a9857648ccff5e99b5d08009b44b088edf5f1b9050610c4e565b601f8203610c11577f213fb841f9de06958cf4403477bdbff7c59d6249daabfee147f853db7c8080825f1b9050610c4e565b816040517f76de0238000000000000000000000000000000000000000000000000000000008152600401610c459190610d9c565b60405180910390fd5b919050565b5f602052805f5260405f205f915090505481565b5f819050610c7481610c82565b919050565b5f819050919050565b7f30644e72e131a029b85045b68181585d2833e84879b9709143e1f593f00000018110610ce4576040517f08c379a0000000000000000000000000000000000000000000000000000000008152600401610cdb9061108c565b60405180910390fd5b50565b5f5ffd5b5f819050919050565b610cfd81610ceb565b8114610d07575f5ffd5b50565b5f81359050610d1881610cf4565b92915050565b5f5f60408385031215610d3457610d33610ce7565b5b5f610d4185828601610d0a565b9250506020610d5285828601610d0a565b9150509250929050565b610d6581610ceb565b82525050565b5f602082019050610d7e5f830184610d5c565b92915050565b5f819050919050565b610d9681610d84565b82525050565b5f602082019050610daf5f830184610d8d565b92915050565b5f63ffffffff82169050919050565b610dcd81610db5565b82525050565b5f602082019050610de65f830184610dc4565b92915050565b5f60208284031215610e0157610e00610ce7565b5b5f610e0e84828501610d0a565b91505092915050565b5f8115159050919050565b610e2b81610e17565b82525050565b5f602082019050610e445f830184610e22565b92915050565b5f73ffffffffffffffffffffffffffffffffffffffff82169050919050565b5f819050919050565b5f610e8c610e87610e8284610e4a565b610e69565b610e4a565b9050919050565b5f610e9d82610e72565b9050919050565b5f610eae82610e93565b9050919050565b610ebe81610ea4565b82525050565b5f602082019050610ed75f830184610eb5565b92915050565b610ee681610d84565b8114610ef0575f5ffd5b50565b5f81359050610f0181610edd565b92915050565b5f60208284031215610f1c57610f1b610ce7565b5b5f610f2984828501610ef3565b91505092915050565b5f610f4c610f47610f4284610d84565b610e69565b610d84565b9050919050565b610f5c81610f32565b82525050565b5f604082019050610f755f830185610f53565b610f826020830184610f53565b9392505050565b610f9281610d84565b8114610f9c575f5ffd5b50565b5f81519050610fad81610f89565b92915050565b5f60208284031215610fc857610fc7610ce7565b5b5f610fd584828501610f9f565b91505092915050565b7f4e487b71000000000000000000000000000000000000000000000000000000005f52601160045260245ffd5b5f61101582610db5565b91505f820361102757611026610fde565b5b600182039050919050565b5f82825260208201905092915050565b7f4669656c643a20696e70757420697320746f6f206c61726765000000000000005f82015250565b5f611076601983611032565b915061108182611042565b602082019050919050565b5f6020820190508181035f8301526110a38161106a565b905091905056fea26469706673582212209fe0b7f13f6904fc58c6e440b160e4d8e2d56c7c15286f401f6777a221df7fe564736f6c634300081c0033","linkReferences":{}},"methodIdentifiers":{"FIELD_SIZE()":"414a37ba","ROOT_HISTORY_SIZE()":"cd87a3b4","ZERO_ELEMENT()":"871211df","getLatestRoot()":"5445b007","hashLeftRight(bytes32,bytes32)":"38bf282e","i_depth()":"73d73202","i_hasher()":"705f032f","isKnownRoot(bytes32)":"6d9833e3","s_cachedSubtrees(uint256)":"ed7cf2df","s_currentRootIndex()":"57f65706","s_nextLeafIndex()":"59f41a81","s_roots(uint256)":"9c8b91c1","zeros(uint256)":"e8295588"},"id":4}